:100000000C94E9000C94700E0C94970E0C94110152
:100010000C9411010C9411010C9411010C94110118
:100020000C9411010C9411010C9411010C94110108
:100030000C9411010C9411010C9411010C941101F8
:100040000C944C0C0C9411010C9484140C94B61464
:100050000C9411010C9411010C9411010C941101D8
:100060000C9411010C941101BF103F104310471064
:100070004B104F105210551059105C106010631047
:1000800067106A10C31079107D10DD108110A21066
:100090008510AA10AD108810B4108C108F1092101B
:1000A000C710A210A610AA10AD10B010B410B8104E
:1000B000BC1000000008000201000003040700005B
:1000C000000000000000010204081020408001022E
:1000D000040810200102040810200404040404048D
:1000E00004040202020202020303030303030000EA
:1000F0000000250028002B0000000000240027003D
:100100002A0052657475726E696E6720746F205094
:10011000726576696F7573204D6F646520466169FD
:100120006C7572652E2E2E006053657474696E674F
:10013000204944204D6F6465204661696C75726585
:100140002E2E2E0053657474696E672042617564AB
:1001500072617465205375636365737366756C2192
:100160000053657474696E672042617564726174CE
:1001700065204661696C7572652E2E2E00456E7481
:100180006572696E6720436F6E6669677572617428
:10019000696F6E204D6F646520537563636573737B
:1001A00066756C2100456E746572696E6720436FD9
:1001B0006E66696775726174696F6E204D6F6465F4
:1001C000204661696C7572652E2E2E005F0BA30DA3
:1001D000DC1411241FBECFEFD8E0DEBFCDBF13E08B
:1001E000A0E0B1E0EAE9F1E302C005900D92A2318E
:1001F000B107D9F727E0A2E1B3E001C01D92AC3509
:10020000B207E1F710E0C9EED0E004C02197FE018B
:100210000E948E18C63ED107C9F70E94940D0C9417
:1002200059180C940000E2E10E94B8010895E9E039
:100230000E94B8010895EAE00E94B8010895E1E043
:100240000E94B8010895E3E00E94B8010895E7E034
:100250000E94B8010895E5E00E94B8010895E0E029
:100260000E94B8010895E2E00E94B8010895E4E018
:100270000E94B8010895ECE00E94B8010895E8E0FA
:100280000E94B8010895EEE00E94B8010895E4E1EB
:100290000E94B8010895E0E10E94B8010895E7E1E5
:1002A0000E94B8010895E6E00E94B8010895EBE0CD
:1002B0000E94B8010895EDE00E94B8010895EFE0B2
:1002C0000E94B8010895E1E10E94B8010895E3E1B8
:1002D0000E94B8010895E5E10E94B8010895E6E1A1
:1002E0000E94B801089521968A929A92AA92BA928F
:1002F000CA92DA92EA92FA920A931A932197E091BB
:100300007901F0917A010080F181E02DC083D183E1
:100310000895C0917B01D0917C01E881F981C08171
:10032000D181219619910991F990E990D990C990BC
:10033000B990A99099908990219708952F903F9016
:10034000E7E6F1E0CDB7DEB7EDBFFEBF3F922F92FB
:1003500008952F903F90CDBFDEBF3F922F9208951A
:10036000E0E80E94B8010895E0E40E94B801089511
:100370002F923F924F925F926F927F922FB62F9261
:10038000CF93DF937E2EF894E0910001EF5FE0932E
:100390000001E13011F40E949E01E0E0E093890148
:1003A000E72DE07849F00E944306F0918A01F17050
:1003B00071F00E94C5040BC0E72DEC3140F4EE0F44
:1003C000F0E0EF53FD4F0190F081E02D0995F091A1
:1003D0008901EF2FE17059F0F27011F00E94730162
:1003E0008F938F2F0E940D048F910E94890120917D
:1003F0000001215020930001222311F40E94A90141
:10040000DF91CF912F902FBE7F906F905F904F9094
:100410003F902F900895CF92DF92EF92FF920F932B
:100420001F93DC01EC91DB012C918E2F8170C82E83
:10043000D12CE12CF12C8E2F8F7090E0A0E0B0E059
:10044000B695A79597958795DC01A65CBC4F8C91D6
:10045000C81AD108E108F108EE70422F417050E04F
:1004600060E070E0822F8F7090E0A0E0B0E0B69581
:10047000A79597958795DC01A65CBC4F8C91481B8E
:10048000510961097109822F8E70970186010170EF
:100490001127222733270E2B4170552766277727F0
:1004A000482B81E090E0041715072607370710F066
:1004B00080E090E01F910F91FF90EF90DF90CF9040
:1004C00008958F929F92AF92BF92EF92FF920F93F7
:1004D0001F93CF93DF937C014A015B01B694A794ED
:1004E000979487944230510561057105E0F0440FFF
:1004F000551F8701040F151FE401CC0FDD1FCE0D22
:10050000DF1DB801CE010E940B02892B61F0F801BA
:1005100090818181288139813183208398838983E7
:10052000B501A401DBCFDF91CF911F910F91FF9017
:10053000EF90BF90AF909F908F9008954F925F92F1
:100540006F927F928F929F92AF92BF92CF92DF92E3
:10055000EF92FF920F931F93CF93DF9300D000D0C1
:1005600000D0CDB7DEB78C016A017B01DC018C9134
:10057000282F30E040E050E029833A834B835C83AE
:1005800046015701880C991CAA1CBB1C29813A8181
:100590004B815C81281539054A055B0508F442C08A
:1005A000240135013FEF431A530A630A730A898114
:1005B0009A81AB81BC8184159505A605B70580F0AD
:1005C000B201660F771F600F711FC401880F991F5A
:1005D000800F911F0E940B02892B11F053014201E1
:1005E0003401660C771C600E711ECC0CDD1CD8012A
:1005F000AC0DBD1DBE83AD83B301CD010E940B02C6
:10060000892B81F0ED81FE8190818181D3012D9133
:100610003C911197318320839C9311968C937501A3
:100620006401AECF26960FB6F894DEBF0FBECDBFE5
:10063000DF91CF911F910F91FF90EF90DF90CF90BE
:10064000BF90AF909F908F907F906F905F904F90F2
:100650000895E8EFF5E040814F5F408350E060E0AF
:1006600070E0E82FEE0FFF0BEE58FD4F0190F08188
:10067000E02D238530E0F901E65CFC4F908191503C
:100680009083FA01EE0FFF1FE850FA4F220F331F3D
:100690009170292B2083818388EF95E00C9461026F
:1006A000E8EFF5E040814F5F408350E060E070E0AC
:1006B000E82FEE0FFF0BE659FD4F0190F081E02D82
:1006C0009381FA01EE0FFF1FE850FA4F9083818368
:1006D00088EF95E00C946102CF93DF93E8EFF5E0AB
:1006E00080819FEF980F9083D281C38190E0880F23
:1006F000991FDC01A850BA4F8D919C9193838283FE
:1007000041E050E060E070E0CF010E949E028D2F3A
:100710009C2FDF91CF91089580911203811114C015
:100720008091810190918201A0918301B091840117
:100730008F3F2FEF9207A207B20741F00397A10561
:10074000B10534F481E0089584E0089580E00895CF
:1007500082E00895880F990BFC01EE58FD4F01903F
:10076000F081E02D0084F185E02D3097E9F02281C1
:1007700021111AC021E02283DC01A659BD4F0D9042
:10078000BC91A02D13968C9113978183808190E06A
:10079000FC01E65CFC4F208121502083880F991FCB
:1007A0002170822B13968C930895880F990BFC016E
:1007B000EE58FD4F0190F081E02D0084F185E02D91
:1007C000309761F02281213049F412822181FC01AD
:1007D000E659FD4F0190F081E02D2383089580912B
:1007E000850190918601A0918701B0918801409187
:1007F00081015091820160918301709184014817B9
:1008000059076A077B0741F0E0917F01F091800171
:1008100021E024830C9450030895CF93DF93882321
:1008200091F0C0917901D0917A01E0917D01F09130
:100830007E018481833049F081E08483809181014D
:100840000E94500302C0C0E0D0E0E0917F01F0912F
:100850008001F0937E01E0937D0180917B01909176
:100860007C0190937A018093790180918501309188
:1008700086012091870190918801809381013093B6
:100880008201209383019093840192E094830E94DB
:10089000AA03CE01DF91CF910895809181010E943A
:1008A000D503E0917D01F0917E018281882319F0CA
:1008B00085E08483089514820895CF93DF93282FD1
:1008C000220F330BF901E659FD4FC081D1819A8186
:1008D000F901EE58FD4F0190F081E02D248592172B
:1008E00070F4911105C095E09C8391E090938A018A
:1008F0000E9429038A818F5F8A8380E001C084E09F
:10090000DF91CF910895E82FEE0FFF0BE659FD4FD1
:100910000190F081E02D118210820C944E0D1F93F6
:10092000CF93DF930E946C03182F892F492F092E34
:10093000000C550B660B770B409385015093860195
:100940006093870170938801292F220F330BF901DF
:10095000E659FD4FC081D181D0938001C0937F01C2
:10096000F901EE58FD4F2081318130937C012093B5
:100970007B019C81953019F40E9483041B831092A3
:100980008A01DF91CF911F910895E0918501F09147
:100990008601EE0FFF1FE659FD4F0190F081E02D1B
:1009A0009091FA058381891730F40E94EF030E9429
:1009B0008F0483E001C080E080938901089581E085
:1009C000809389010C948F04EF92FF920F931F93F1
:1009D000CF93DF93C1E001C0CC0F8A95EAF7209155
:1009E0007802309179028091700290917102109298
:1009F000F80510927A011092790130937C012093CE
:100A00007B0110927E0110927D0190938001809372
:100A10007F018FEF9FEFDC01809381019093820132
:100A2000A0938301B0938401809385019093860104
:100A3000A0938701B09388011092890110928A01D6
:100A400083E00E945D040DEB12E0D0E0F80181919B
:100A50008F018C2319F08D2F0E945D04DF5FD3304E
:100A6000A9F70AEB12E089E4E82E82E0F82ED1E043
:100A7000F80181918F018C2339F0F70180819181F8
:100A8000FC01D6870E947C05F2E0EF0EF11C82E0AB
:100A90000D3B180769F7DF91CF911F910F91FF90E0
:100AA000EF9008950E942A0781110E944B07E09160
:100AB0007D01F0917E0180819181892B21F08091CF
:100AC00081010E9412090C9473080E942A07811167
:100AD0000E944B07E0917D01F0917E018081918120
:100AE000892B21F0809181010E9412090C945B08EE
:100AF00081E0809313030895AF92BF92CF92DF926B
:100B0000EF92FF920F931F93CF93DF93FC01A0818D
:100B1000B181AD90BC90E501AC89BD89109739F0E9
:100B2000428553856485758530E020E017C0D50186
:100B300055969C938E93549757969C938E93569765
:100B400015821482138212825BC012968D919C9141
:100B500013973A2F2B2F009779F0DC011A96CD903E
:100B6000DD90ED90FC901D974C155D056E057F05A1
:100B700060F7CD01A32FB22F93838283B583A48323
:100B8000009719F0EC01FD83EC83109729F0139680
:100B9000FC93EE93129705C0D5015596FC93EE9306
:100BA0005497E501AE89BF891A968D919D910D905C
:100BB000BC91A02D088919892A893B898017910742
:100BC000A207B30780F4041715072607370728F094
:100BD000481759076A077B0798F4D5015796FC9385
:100BE000EE9356970DC0041715072607370740F4F4
:100BF000481759076A077B0718F4E501FF8BEE8B4E
:100C0000DF91CF911F910F91FF90EF90DF90CF90E8
:100C1000BF90AF900895CF93DF93DC01ED91FC91ED
:100C200011970190F081E02D848995891296CD91DC
:100C3000DC911397A817B90711F4D58BC48B86895B
:100C40009789A817B90711F4D78BC68B209731F075
:100C500014968D919C9115979D838C8314960D907D
:100C6000BC91A02D109721F01396DC93CE93129790
:100C700086899789892B21F484899589978B868B1E
:100C8000DF91CF910895EF92FF920F931F93CF932F
:100C9000DF93FC0180911303882309F4B5C0848598
:100CA0009585A685B7850196A11DB11D8487958779
:100CB000A687B78740815181628173818417950728
:100CC000A607B70709F0A0C04089518962897389D6
:100CD0004F5F5F4F6F4F7F4F84819581A681B781B2
:100CE00084179507A607B70718F440E050E0BA014B
:100CF000408B518B628B738B1486158616861786F4
:100D0000C689D789209709F47FC08A859B85AC85E1
:100D1000BD85481759076A077B0709F075C0CE01E2
:100D2000DC011296ED90FC901397E114F10471F040
:100D3000D7011A960D911D912D913C911D97401749
:100D400051076207730711F4C701EACF2C813D8177
:100D50002115310529F0D9011396FC92EE921297D4
:100D6000E114F10429F0D70115963C932E931497C2
:100D700024893589C217D30711F4F58AE48AE1146E
:100D8000F10419F0F78AE68A04C024893589378B83
:100D9000268B8F01FC0113821282EA80FB80E8819E
:100DA000F9810280F381E02DCE0109954E815F81AA
:100DB00068857985411551056105710509F18A85B7
:100DC0009B85AC85BD85840F951FA61FB71FF801B5
:100DD0004481558166817781481759076A077B07E7
:100DE00038F4841B950BA60BB70B0197A109B10929
:100DF0008A879B87AC87BD87CE010E947C0501C096
:100E00001E86E701209749F6DF91CF911F910F9140
:100E1000FF90EF900895FC0182810C945D040E9484
:100E20002A0780916E01089580936E010E94E40468
:100E30000E9478050C94DF040C944D0DCF93C82FBD
:100E40000E948C03811102C00E948A0D8C2FCF91C9
:100E50000C941701809120038130D9F08091180300
:100E600090911903A0911A03B0911B03892B8A2B2F
:100E70008B2B79F481E040911C0350911D0360910C
:100E80001E0370911F03452B462B472B19F480E05E
:100E9000089581E008951092200310921C0310928F
:100EA0001D0310921E0310921F031092180310923C
:100EB000190310921A0310921B038091140390914E
:100EC0001503A0911603B09117038093210390930B
:100ED0002203A0932303B093240308950E948D0D51
:100EE0008091210390912203A0912303B0912403C8
:100EF0000196A11DB11D8093210390932203A0931D
:100F00002303B093240380911C0390911D03A091AF
:100F10001E03B0911F030196A11DB11D80931C03F8
:100F200090931D03A0931E03B0931F030895809117
:100F30001C0390911D03A0911E03B0911F03009705
:100F4000A105B10569F140912103509122036091FF
:100F500023037091240341505109610971094093A1
:100F6000210350932203609323037093240301977A
:100F7000A109B10980931C0390931D03A0931E0344
:100F8000B0931F038091210390912203A09123032A
:100F9000B0912403892B8A2B8B2B11F40C948B0D8D
:100FA000089580911C0390911D03A0911E03B091A0
:100FB0001F03892B8A2B8B2B89F480911803909126
:100FC0001903A0911A03B0911B03892B8A2B8B2B39
:100FD00029F40E948D0D81E0809320030895809173
:100FE0002003882321F0109220030C948B0D089588
:100FF0000E94910D8091210390912203A0912303DF
:10100000B09124030196A11DB11D809321039093FB
:101010002203A0932303B09324038091180390919B
:101020001903A0911A03B0911B030196A11DB11DD4
:101030008093180390931903A0931A03B0931B0392
:1010400008958091180390911903A0911A03B0910B
:101050001B030097A105B10569F14091210350914F
:1010600022036091230370912403415051096109C7
:1010700071094093210350932203609323037093DB
:1010800024030197A109B1098093180390931903D0
:10109000A0931A03B0931B03809121039091220324
:1010A000A0912303B0912403892B8A2B8B2B11F45D
:1010B0000C948F0D08950E942A07882311F083E174
:1010C000089580E00895CF93C82F0E942A078C2F9F
:1010D0000E945D04C82F80918A0181110E94C5047D
:1010E0008C2FCF910895CF930E942A07882311F067
:1010F000C3E101C0C0E0E0917D01F0917E018281F9
:10110000815082830E944D0481E0809389010E9476
:101110008F048C2FCF910895CF93C82F0E942A0758
:10112000E0917D01F0917E018281815082838C2F3C
:101130000E945D04C82F811108C00E944D0481E007
:10114000809389010E948F0407C0E0917D01F09196
:101150007E0182818F5F82838C2FCF910895CF9300
:101160000E942A07882311F0C3E101C0C0E08091EA
:1011700081010E94D5030E94C50480918101909154
:101180008201A0918301B091840140918501509129
:101190008601609187017091880184179507A607E1
:1011A000B70711F40E94AA038C2FCF910895CF9313
:1011B000DF93EC010E942A07882311F083E101C02C
:1011C00080E0409181015091820160918301709192
:1011D0008401433051056105710514F4488303C04F
:1011E0009091F5019883DF91CF9108950F931F930C
:1011F000CF93C82F8B010E942A07882311F083E127
:1012000001C080E0EC2FEE0FFF0BE659FD4F01907F
:10121000F081E02D94819370F8019083CF911F911C
:101220000F910895880F990BFC01E659FD4FA0819D
:10123000B181ED91FC911197309769F01D921C924C
:101240002091F50193818481228314821382E92FF6
:10125000F82F3097B9F70895CF93C82F0E942A0727
:10126000882311F083E101C080E0EC2FF0E0EE0F65
:10127000FF1FEE54FD4FA081B18190918101129624
:101280009C931297E0917D01F0917E012081318144
:1012900014963C932E931397B183A0839381119658
:1012A0009C9311972C9193819695921760F430E05E
:1012B000D901A65CBC4F9C9191509C93220F331F87
:1012C0009170292B2383CF910895CF93DF93C82F5B
:1012D0000E942A07882311F0D3E101C0D0E0EC2F4F
:1012E000F0E0EE0FFF1FEE54FD4F0190F081E02D76
:1012F000A0917D01B0917E01818113968C9313970B
:10130000838194818D939C93148213828091F50143
:1013100082830E94C5048D2FDF91CF910895DC0157
:10132000ED91FC9184819581DC01ED91FC91099412
:101330001F93CF93DF93182FEB010E942A07882376
:1013400011F083E101C080E0E12FF0E0EE0FFF1F1C
:10135000E75BFD4F0190F081E02D0190F081E02DE1
:101360000190F081E02D40815181628173814C8335
:101370005D836E837F834481558166817781488355
:1013800059836A837B83408551856285738548874D
:1013900059876A877B87DF91CF911F9108958F923C
:1013A0009F92AF92BF92CF92DF92EF92FF920F93F4
:1013B0001F93CF93C82F8B010E942A07882311F017
:1013C00083E101C080E0EC2FF0E0EE0FFF1FE75B50
:1013D000FD4F0190F081E02D9685913029F54285F1
:1013E0005385648575850190F081E02D0190F08131
:1013F000E02DC088D188E288F3884C155D056E0524
:101400007F0540F484809580A680B780480D591DE3
:101410006A1D7B1D4C195D096E097F09F801408327
:1014200051836283738301C085E0CF911F910F9137
:10143000FF90EF90DF90CF90BF90AF909F908F90F4
:1014400008958F929F92AF92BF92CF92DF92EF92C8
:10145000FF920F931F93CF93DF93D82F4A015B0125
:10146000680179010E942A07882311F0C3E101C0B5
:10147000C0E0ED2FF0E0EE0FFF1FE75BFD4F0190A6
:10148000F081E02D8685811130C0A081B1810D9061
:10149000BC91A02D50964D915D916D917C9153978B
:1014A000480D591D6A1D7B1D14968D919D910D90BF
:1014B000BC91A02D84179507A607B70740F4481BD9
:1014C000590B6A0B7B0B4150510961097109428725
:1014D000538764877587C682D782E086F18681E06C
:1014E0008687CF010E947C0501C0C7E08C2FDF9169
:1014F000CF911F910F91FF90EF90DF90CF90BF9011
:10150000AF909F908F9008958F929F92AF92BF92CD
:10151000CF92DF92EF92FF920F931F93CF93DF93BF
:10152000C82F4A015B01680179010E942A078823BC
:1015300011F0D3E101C0D0E0EC2FF0E0EE0FFF1F7F
:10154000E75BFD4F0190F081E02D868581110EC093
:1015500082869386A486B586C682D782E086F18687
:1015600081E08687CF010E947C0501C0D7E08D2FE6
:10157000DF91CF911F910F91FF90EF90DF90CF906F
:10158000BF90AF909F908F9008950F931F93CF932C
:10159000DF93C82F0E942A07882311F0D3E101C0EE
:1015A000D0E0EC2FF0E0EE0FFF1FE75BFD4F008176
:1015B0001181F8018685813031F4C8010E940B0643
:1015C000F801168601C0D5E08D2FDF91CF911F91D4
:1015D0000F91089526E040E052EC61E070E080E574
:1015E00093E00E94D71522E04DE063E086E293E0AD
:1015F0000E94C912882339F068EC70E080E090E026
:101600000E94D50CF0CF66EF71E080E593E00E9478
:10161000031460E086E293E00C941D101F93CF93B7
:10162000DF931091B902812F0E945701C0916F0181
:10163000D0917001C358DF4F812F0E945B01D09180
:10164000B8028D2F0E945701C09374018D2F0E9404
:101650005B01DF91CF911F910C943F01EF92FF92BC
:101660000F93CF93C091B8028C2F0E94570181E74E
:10167000E82E81E0F82E08E021E043E055E060EF3D
:1016800078E186E293E00E947213809325038C2F09
:101690000E945B0180912503882359F0873019F45B
:1016A00061E272E002C066E372E080E593E00E94CE
:1016B0000314CF910F91FF90EF900C943F016AE0DB
:1016C00086E293E00C94B6121F93CF93DF93CDB7CD
:1016D000DEB72A970FB6F894DEBF0FBECDBF80E508
:1016E00093E00E940915181619068CF544E050E0A5
:1016F000BE01695F7F4F80E593E00E944514109121
:10170000B902812F0E9457018F818D3299F488850B
:101710008E3681F48985873669F48A859FEC980F27
:10172000953040F4082E000C990BC09790937001EF
:1017300080936F01812F0E945B0160E573E0CE0111
:1017400001960E946A14CE0101960E94A80D0E9483
:101750003F012A960FB6F894DEBF0FBECDBFDF91D2
:10176000CF911F91089587EC91E00C94B0010895FA
:10177000833081F028F4813099F08230A1F008950F
:101780008730A9F08830B9F08430D1F4809180009E
:101790008F7D03C0809180008F77809380000895B3
:1017A00084B58F7702C084B58F7D84BD0895809104
:1017B000B0008F7703C08091B0008F7D8093B00020
:1017C0000895CF93DF9390E0FC01EA53FF4F2491FB
:1017D000FC01E652FF4F8491882361F190E0880F6D
:1017E000991FFC01E850FF4FC591D491FC01E251D3
:1017F000FF4FA591B491611109C09FB7F8948881FA
:10180000209582238883EC912E230BC0623061F4F3
:101810009FB7F8948881322F309583238883EC9189
:101820002E2B2C939FBF06C08FB7F894E8812E2BE8
:1018300028838FBFDF91CF9108951F93CF93DF93BC
:10184000282F30E0F901EE54FF4F8491F901EA535B
:10185000FF4FD491F901E652FF4FC491CC23C1F060
:10186000162F81110E94B80BEC2FF0E0EE0FFF1F36
:10187000E251FF4FA591B4919FB7F894111104C0A4
:101880008C91D095D82302C0EC91DE2BDC939FBFC6
:10189000DF91CF911F9108951F920F920FB60F9273
:1018A00011242F933F934F935F936F937F938F9365
:1018B0009F93AF93BF93EF93FF93809147039091D2
:1018C0004803A0914903B0914A033091460323E0B5
:1018D000230F2D3720F40196A11DB11D05C026E868
:1018E000230F0296A11DB11D209346038093470349
:1018F00090934803A0934903B0934A0380914B030C
:1019000090914C03A0914D03B0914E030196A11DFF
:10191000B11D80934B0390934C03A0934D03B09360
:101920004E030E94B30BFF91EF91BF91AF919F9136
:101930008F917F916F915F914F913F912F910F9078
:101940000FBE0F901F9018952FB7F8946091470322
:10195000709148038091490390914A032FBF0895E5
:101960003FB7F89480914B0390914C03A0914D03A5
:10197000B0914E0326B5A89B05C02F3F19F00196E4
:10198000A11DB11D3FBFBA2FA92F982F8827820F05
:10199000911DA11DB11DBC01CD0142E0660F771F55
:1019A000881F991F4A95D1F708958F929F92AF9201
:1019B000BF92CF92DF92EF92FF926B017C010E9467
:1019C000B00C4B015C01C114D104E104F10401F13C
:1019D0000E944B0D0E94B00CDC01CB0188199909C3
:1019E000AA09BB09883E9340A105B10560F321E037
:1019F000C21AD108E108F10888EE880E83E0981E2B
:101A0000A11CB11CC114D104E104F10419F7DBCF0E
:101A1000FF90EF90DF90CF90BF90AF909F908F900E
:101A2000089584B5826084BD84B5816084BD85B528
:101A3000826085BD85B5816085BDEEE6F0E0808180
:101A400081608083E1E8F0E01082808182608083A1
:101A5000808181608083E0E8F0E080818160808324
:101A6000E1EBF0E0808184608083E0EBF0E0808156
:101A700081608083EAE7F0E08081846080838081F8
:101A800082608083808181608083808180688083A0
:101A90001092C10008950895FFCFFFCFCF93DF9339
:101AA000880F990BFC01EE58FD4FC081D181AC81AC
:101AB000BD8111978A819B81A80FB91F2D85CD010A
:101AC0000197FD013297223019F427E331E002C07B
:101AD00023E531E02C93DC013C939E818F81908340
:101AE000DF018E93CF0107971E928A179B07E1F7BC
:101AF00080E8DF0118978C93CF0144971E928A17D4
:101B00009B07E1F7A881B9817597ED93FC93DF916D
:101B1000CF910895089578940895F894089578944D
:101B20000895F894089508950E94110D0E94930D50
:101B30000E94B70B0E94EA0A80914F030E941E0781
:101B400080E090E008958091C00280934F03089553
:101B5000FC0180819181009711F00C940A1708957F
:101B6000CF93DF93EC0188819981009711F00E9457
:101B70000A17198218821D821C821B821A82DF9129
:101B8000CF9108950F931F93CF93DF93EC018B01B7
:101B90006F5F7F4F888199810E949317009731F082
:101BA000998388831B830A8381E001C080E0DF91F1
:101BB000CF911F910F910895CF93DF93EC0188810E
:101BC0009981892B29F08A819B818617970760F478
:101BD000CE010E94C20D882341F08C819D81892B0A
:101BE00019F4E881F981108281E0DF91CF910895A5
:101BF000EF92FF920F931F93CF93DF93EC017B0142
:101C00008A01BA010E94DC0D811104C0CE010E943C
:101C1000B00D07C01D830C83B701888199810E9494
:101C20006518CE01DF91CF911F910F91FF90EF903A
:101C30000895FC011182108213821282158214828F
:101C40006115710551F0FB0101900020E9F7319712
:101C5000AF01461B570B0C94F80D0895EF92FF92BD
:101C60000F931F93CF93DF936115710511F480E0FB
:101C70001CC041155105C1F07B01EC018C819D8197
:101C80008A01080F191FB801CE010E94DC0D8823BC
:101C900071F3288139818C819D81B701820F931F57
:101CA0000E9465181D830C8381E0DF91CF911F9105
:101CB0000F91FF90EF900895CF93DF9300D0CDB7B1
:101CC000DEB769831A8241E050E0BE016F5F7F4F4B
:101CD0000E942E0E0F900F90DF91CF9108950895DE
:101CE0001F920F920FB60F9211242F933F934F9391
:101CF0005F936F937F938F939F93AF93BF93EF9374
:101D0000FF93E091EE01F091EF010995FF91EF91C2
:101D1000BF91AF919F918F917F916F915F914F9103
:101D20003F912F910F900FBE0F901F9018951F920B
:101D30000F920FB60F9211242F933F934F935F93FF
:101D40006F937F938F939F93AF93BF93EF93FF9383
:101D5000E091F001F091F1010995FF91EF91BF91B0
:101D6000AF919F918F917F916F915F914F913F9133
:101D70002F910F900FBE0F901F9018952091EF0399
:101D8000222399F04FB7F8942091EF03213059F4B2
:101D90002DB32093ED033DB32091EE032095232333
:101DA0002DBB4FBF02C04093ED038CBD9DBD089578
:101DB0008EBD00000DB407FEFDCF8EB50895809155
:101DC000EF03882361F09FB7F8942091EF0380918F
:101DD000ED03213019F48DBB9FBF08958FBF089587
:101DE000CF93DF93EC0180E591E00E94BE0E60E0AE
:101DF0008A890E941D0C80EC0E94D80E61E08A89BD
:101E00000E941D0C0E94DF0E65E070E080E090E013
:101E1000DF91CF910C94D50C1F93CF93DF93EC01FE
:101E2000162F80E591E00E94BE0E60E08A890E9434
:101E30001D0C83E00E94D80E812F0E94D80E80E0F6
:101E40000E94D80E182F61E08A890E941D0C0E9402
:101E5000DF0E812FDF91CF911F9108950F931F9374
:101E6000CF93DF93EC01062F142F80E591E00E94C1
:101E7000BE0E60E08A890E941D0C82E00E94D80E8E
:101E8000802F0E94D80E812F0E94D80E61E08A898F
:101E90000E941D0CDF91CF911F910F910C94DF0ECA
:101EA000DF92EF92FF920F931F93CF93DF938C01FA
:101EB000C62FD42EE52EF22E80E591E00E94BE0EB4
:101EC00060E0F80182890E941D0C82E00E94D80E19
:101ED0008C2F0E94D80ECD2DDE2DCE018F0D911DA1
:101EE0007C01EC16FD0621F089910E94D80EF9CFF5
:101EF00061E0F80182890E941D0CDF91CF911F9152
:101F00000F91FF90EF90DF900C94DF0EFF920F93F4
:101F10001F93CF93DF93EC01F62E042F122F80E551
:101F200091E00E94BE0E60E08A890E941D0C85E04F
:101F30000E94D80E8F2D0E94D80E802F0E94D80E9E
:101F4000812F0E94D80E61E08A890E941D0CDF91CA
:101F5000CF911F910F91FF900C94DF0EEF92FF92A3
:101F60000F931F93CF93DF93EC01162F0E94A40CC5
:101F7000062FE12EF12C212F40EE6FE0CE010E94C2
:101F8000860F6EE0CE010E940C0F807E90E08E15D1
:101F90009F0539F00E94A40C601B693C60F381E04E
:101FA00001C080E0DF91CF911F910F91FF90EF90E2
:101FB00008950F931F93CF93DF93EC01162F6EE0DC
:101FC0000E940C0F807E803221F5103211F16BE2FD
:101FD000CE010E940C0F082F007486FD06C020E47D
:101FE00040E46BE2CE010E94860F20E440E46CE204
:101FF000CE010E94860F60E6CE010E94AE0F8111D5
:1020000016C0011106C020E040E46BE2CE010E9440
:10201000860F20E040E46CE2CE010E94860F612F23
:10202000CE01DF91CF911F910F910C94AE0F81E003
:10203000DF91CF911F910F910895FC01638B0C9458
:10204000D90FCF92DF92EF92FF920F931F93CF930E
:10205000DF93342F3370313009F43FC008F466C089
:10206000323009F0AAC0062F10E0F8013197EE30A7
:10207000F10508F0A2C0EC5CFF4F0C948E18C4E888
:10208000D6EF23E987C0C4E8D6EF29E883C0C3E8C8
:10209000D5EE27E87FC0C4E8D6EF25E87BC0C4E8CA
:1020A000D6EF05C0C3E8D5EE02C0C1E8D3ED24E801
:1020B00071C0C4E8D6EF02C0C3E8D5EE21E86AC01B
:1020C000C4E8D6EF02C0C3E8D5EE20E863C0C1E89B
:1020D000D1ED2AC0C0E8D0EC27C0C62ED12CF60125
:1020E0003197EE30F10508F068C0EE5BFF4F0C94BD
:1020F0008E18C4E8D6EF27E64DC0C4E8D6EF23E536
:1021000049C0C3E8D5EE2EE445C0C4E8D6EF42C0CE
:10211000C3E8D5EE23E43EC0C3E8D5EE27C0C3E84C
:10212000D5EE28C0C1E8DAEC20E034C0062F10E07C
:10213000F8013697E930F10508F03FC0E05BFF4F4A
:102140000C948E18C4E8D6EF29E424C0C7E8DFEF6A
:1021500024EC20C0C4E8D6EF05C0C3E8D5EE02C029
:10216000C1E8D3ED24E416C0C4E8D6EF21E412C0E0
:10217000C4E8D6EF20E40EC0C2E8D9EDD5CFC4E85C
:10218000D6EF27EA07C0C7E8DFEF2FE303C0C1E8B7
:10219000D3ED28E142FDCF778C01422F6AE20E9405
:1021A0002E0F4D2F69E2C8010E942E0F4C2F68E2BE
:1021B000C8010E942E0F80E001C081E0DF91CF9125
:1021C0001F910F91FF90EF90DF90CF9008950F93A4
:1021D0001F93CF93DF9300D000D0CDB7DEB741304F
:1021E000B1F40C831B83890122273327502F5C71A4
:1021F000402F437078E0579F400D112448604A8378
:1022000055E0169507955A95E1F709830DC0A80189
:1022100023E0569547952A95E1F749830295000FEB
:10222000007E0A831C821B8224E0AE014F5F5F4F59
:102230000E94500F0F900F900F900F90DF91CF9151
:102240001F910F9108950F931F93CF93DF9300D0A9
:1022500000D0CDB7DEB7E62FF42FA9016627772788
:102260000C831B83F13081F4342F3C71242F2370B5
:10227000F8E03F9F200D112428602A8335E0569511
:1022800047953A95E1F70AC0242F2295220F207E28
:102290002A8323E0569547952A95E1F7498324E060
:1022A000AE014F5F5F4F6E2F0E94500F0F900F9047
:1022B0000F900F90DF91CF911F910F9108950F9381
:1022C0001F93CF93DF93EC0100E010E0980141E011
:1022D00060E20E94231100E010E0980141E064E216
:1022E000CE010E94231100E010E0980141E060E07F
:1022F000CE010E94231100E010E0980140E064E06C
:10230000CE010E94231100E010E0980141E068E056
:10231000CE010E94231100E010E0980140E060E14E
:10232000CE010E94231100E010E0980141E064E139
:10233000CE010E94231100E010E0980140E068E126
:10234000CE010E94231110E340E0612FCE010E94D4
:102350002E0F60E1610F40E0CE010E942E0F60E27F
:10236000610F40E0CE010E942E0F1F5F1E3361F708
:1023700040E060E6CE010E942E0F40E060E7CE0113
:10238000DF91CF911F910F910C942E0FEF92FF923E
:102390000F931F93CF93DF93EC01062FF42EE22EC1
:1023A0000E94F00E80E48B8B60E8CE010E94D90F72
:1023B000182F882341F065EA71E080E593E00E94E0
:1023C000F113812F5CC06DE771E080E593E00E941E
:1023D000F1134E2D6F2DCE010E942110882339F06C
:1023E00061E671E080E593E00E94F11347C064E488
:1023F00071E080E593E00E94F113CE010E945F112D
:1024000043E06BE2CE010E942E0F4CE36CE0CE0164
:102410000E942E0F40E06DE0CE010E942E0F00239F
:1024200051F0033019F524E644E660E6CE010E943F
:10243000860F20E607C024E044E660E6CE010E9455
:10244000860F20E040E660E7CE010E94860F6B8990
:10245000CE010E94D90FC82F882381F062E071E07D
:1024600080E593E00E94F1138C2F09C068E271E0CF
:1024700080E593E00E94F11381E001C080E0DF91EC
:10248000CF911F910F91FF90EF900895FF920F93BE
:102490001F93CF93DF93EC01F62EAC014A5F5F4FA1
:1024A00065E06F0D2D810E94500F8E85813019F4EB
:1024B0008D8180648D8364E06F0D4D81CE010E941B
:1024C0002E0F09811A812B813C8148816F2DCE010D
:1024D0000E94E710DF91CF911F910F91FF90089517
:1024E0008F929F92AF92BF92CF92DF92EF92FF9224
:1024F0001F93CF93DF9300D01F92CDB7DEB74C016F
:102500006B018091F2019091F301A091F401898314
:102510009A83AB83FB011082CE0101967C015E01A0
:1025200094E0A90EB11CF70111917F01612FC40144
:102530000E940C0F982F987083FD04C01F5FF60156
:10254000108304C0EA14FB0471F792E0892F0F9006
:102550000F900F90DF91CF911F91FF90EF90DF9040
:10256000CF90BF90AF909F908F900895CF93DF93BF
:10257000EC01862F6A8B61E00E941D0C61E08A8964
:102580000E94E10B81EF93E0998B888BDF91CF91D3
:102590000895FF920F931F93CF93DF93EC01162FB3
:1025A000042FF22E0E943C162F2D402F612FCE01BA
:1025B0000E94C61191E0811101C090E0892FDF9146
:1025C000CF911F910F91FF900895CF92DF92EF92DC
:1025D0000F93FC01418352836383748326870083B6
:1025E00088E08E1510F0E58202C088E08583858141
:1025F00090E03696D6019D012C193D092817390720
:102600001CF42D912193F7CF80E00F91EF90DF9094
:10261000CF900895BF92CF92DF92EF92FF920F93E7
:102620001F93CF93DF931F92CDB7DEB78C010E942B
:10263000B00C6B017C01BE016F5F7F4FC8010E942F
:102640007012B82E0E94B00CDC01CB018C199D09D0
:10265000AE09BF0922E0B21206C0843C9940A10530
:10266000B10548F331C0843C9940A105B10560F53E
:102670006981C8010E9446126981615028E048E0E2
:10268000C8010E94860F0E94B00C6B017C01698119
:102690006150C8010E940C0FB82E0E94B00CDC01E2
:1026A000CB018C199D09AE09BF09B3FE06C0843C5D
:1026B0009940A105B10558F309C0843C9940A10592
:1026C000B10520F480E003C086E001C087E00F90F0
:1026D000DF91CF911F910F91FF90EF90DF90CF90FE
:1026E000BF900895CF92DF92EF92FF920F93CF9316
:1026F000DF93EC016701E02E022F20E00E94E5123B
:10270000CE01DF91CF910F91FF90EF90DF90CF90AE
:102710000C940A13CF92DF92EF92FF920F931F93C4
:10272000CF93DF936C017A018B01C0E0D0E0CE152E
:10273000DF0581F0D8016D918D01D601ED91FC91FD
:102740000190F081E02DC6010995892B11F02196A9
:10275000EECF7E01C701DF91CF911F910F91FF90C6
:10276000EF90DF90CF9008956115710579F0FB012E
:1027700001900020E9F73197AF01461B570BDC01B0
:10278000ED91FC910280F381E02D099480E090E0CE
:102790000895EF92FF920F931F93CF93DF938C01D5
:1027A0007B01C0E0D0E0F701EC0FFD1F64916623D0
:1027B00061F0D801ED91FC910190F081E02DC8010C
:1027C0000995892B11F02196EECFCE01DF91CF91A3
:1027D0001F910F91FF90EF90089561EF72E00C94BC
:1027E000B4130F931F93CF93DF93EC010E94C9138F
:1027F0008C01CE010E94ED13800F911FDF91CF91CC
:102800001F910F9108950F931F93CF93DF93EC01C6
:102810000E94B4138C01CE010E94ED13800F911F12
:10282000DF91CF911F910F9108950F931F93CF9335
:10283000DF93EC010E94A40C688779878A879B87C5
:10284000E881F9810284F385E02DCE01099597FF97
:1028500017C00E94A40C088519852A853B85DC01D8
:10286000CB01801B910BA20BB30B0C811D812E8120
:102870003F8180179107A207B30710F38FEF9FEFF7
:10288000DF91CF911F910F910895CF92DF92EF9238
:10289000FF920F931F93CF93DF936C017A018B010B
:1028A000C0E0D0E0CE15DF0559F0C6010E94151436
:1028B00097FD05C0F80181938F012196F3CF7E012A
:1028C000C701DF91CF911F910F91FF90EF90DF90A3
:1028D000CF9008950F931F93CF93DF93EC018B015B
:1028E00063EF72E00E94190EC8010E94151497FD53
:1028F00005C0682FCE010E945C0EF6CFCE01DF919D
:10290000CF911F910F9108951F920F920FB60F92C2
:1029100011242F938F939F93EF93FF93E091600384
:10292000F09161038081E0916603F091670382FD7D
:1029300012C09081809169038F5F8F7320916A0329
:10294000821751F0E0916903F0E0E05BFC4F958F56
:102950008093690301C08081FF91EF919F918F91D6
:102960002F910F900FBE0F901F9018951F920F92EE
:102970000FB60F9211242F933F934F935F936F9352
:102980007F938F939F93AF93BF93EF93FF9380E5D4
:1029900093E00E944615FF91EF91BF91AF919F91F7
:1029A0008F917F916F915F914F913F912F910F90F8
:1029B0000FBE0F901F901895E0E5F3E0138212828E
:1029C00088EE93E0A0E0B0E084839583A683B7838C
:1029D00084E093E09183808385EC90E09587848701
:1029E00084EC90E09787868780EC90E0918B808BD9
:1029F00081EC90E0938B828B82EC90E0958B848BC2
:102A000086EC90E0978B868B118E128E138E148E2F
:102A10000895FC01918D228D892F90E0805C9F4F5D
:102A2000821B91098F7399270895FC01918D828DE6
:102A3000981731F0828DE80FF11D858D90E0089593
:102A40008FEF9FEF0895FC01918D828D981761F0B3
:102A5000828DDF01A80FB11D5D968C91928D9F5FD5
:102A60009F73928F90E008958FEF9FEF0895FC0180
:102A7000538D448D252F30E0842F90E0821B930BE3
:102A8000541710F0CF96089501970895FC01848D96
:102A9000DF01A80FB11DA35ABF4F2C91848D90E088
:102AA00001968F739927848FA689B7892C93A08963
:102AB000B1898C91837080648C93938D848D9813ED
:102AC00006C00288F389E02D80818F7D8083089580
:102AD000EF92FF920F931F93CF93DF93EC0181E06E
:102AE000888F9B8D8C8D981305C0E889F98980812A
:102AF00085FD26C0F62E0B8D10E00F5F1F4F0F7364
:102B00001127E02E8C8DE8120CC00FB607FCFACF0F
:102B1000E889F989808185FFF5CFCE010E944615AD
:102B2000F1CF8B8DFE01E80FF11DE35AFF4FF082CC
:102B30009FB7F8940B8FEA89FB89808180620AC075
:102B40009FB7F894EE89FF896083E889F9898081CD
:102B50008370806480839FBF81E090E0DF91CF919C
:102B60001F910F91FF90EF900895CF93DF93EC01A9
:102B7000888D8823C9F0EA89FB89808185FD05C09D
:102B8000A889B9898C9186FD0FC00FB607FCF5CFD7
:102B9000808185FFF2CFA889B9898C9185FFEDCF1F
:102BA000CE010E944615E7CFDF91CF910895CF92D5
:102BB000DF92EF92FF921F93CF93DF93EC016A01B4
:102BC0007B01122FE889F98982E080834115514EFB
:102BD00061057105B1F060E079E08DE390E0A70157
:102BE00096010E946C18DA01C9010197A109B10987
:102BF000B695A795979587959C01211580E1380793
:102C0000A8F0E889F989108260E874E88EE190E024
:102C1000A70196010E946C18DA01C9010197A10968
:102C2000B109B695A795979587959C01EC85FD858B
:102C30003083EE85FF852083188EEC89FD89108313
:102C4000EA89FB89808180618083EA89FB898081B0
:102C500088608083EA89FB89808180688083EA8933
:102C6000FB8980818F7D8083DF91CF911F91FF90C1
:102C7000EF90DF90CF900895CF93CFB7F8948091E5
:102C8000F003811127C0E4EEF0E08491E0EDF0E084
:102C90009491E82FF0E0EE0FFF1FE850FF4FA59151
:102CA000B491EC91E92321F461E08AE00E941D0CCB
:102CB00061E08AE00E94E10B8CB580618CBD8CB52F
:102CC00080648CBD61E08DE00E94E10B61E08BE0EF
:102CD0000E94E10B8091F0038F5F8093F003CFBFE0
:102CE000CF9108950F931F93CF93DF938230910577
:102CF00010F482E090E0E0915A07F0915B0720E049
:102D000030E0A0E0B0E0309719F1408151810281BC
:102D1000138148175907C8F08417950769F410976D
:102D200031F012960C93129713961C9327C00093C0
:102D30005A0710935B0722C02115310519F042177D
:102D4000530718F49A01BD01EF01DF01F801DBCF51
:102D500021153105F9F0281B390B2430310580F499
:102D60008A819B816115710521F0FB019383828328
:102D700004C090935B0780935A07FE01329644C0CB
:102D8000FE01E20FF31F81939193225031093983A1
:102D900028833AC02091580730915907232B41F4DA
:102DA00020916A0130916B013093590720935807A5
:102DB00020916801309169012115310541F42DB749
:102DC0003EB740916C0150916D01241B350BE09191
:102DD0005807F0915907E217F307A0F42E1B3F0B99
:102DE0002817390778F0AC014E5F5F4F241735077D
:102DF00048F04E0F5F1F5093590740935807819337
:102E0000919302C0E0E0F0E0CF01DF91CF911F91FC
:102E10000F910895CF93DF93009709F481C0FC01CF
:102E2000329713821282A0915A07B0915B071097D4
:102E300081F420813181820F931F209158073091B6
:102E400059072817390751F5F0935907E0935807A8
:102E500067C0ED0120E030E0CE17DF0740F44A8183
:102E60005B819E0141155105F1F0EA01F5CFD38355
:102E7000C28340815181840F951FC817D90759F427
:102E800088819981840F951F0296918380838A811E
:102E90009B81938382832115310529F4F0935B078D
:102EA000E0935A073DC0E901FB83EA8349915991B8
:102EB000C40FD51FEC17FD0761F480819181840F49
:102EC000951F0296E90199838883828193819B8370
:102ED0008A83E0E0F0E012968D919C911397009721
:102EE00019F0FD01DC01F7CF8D919C9111979D01A7
:102EF0002E5F3F4F820F931F209158073091590743
:102F00002817390769F4309729F410925B0710925B
:102F10005A0702C013821282B0935907A093580730
:102F2000DF91CF910895A0E0B0E0E9E9F7E10C94DA
:102F30009818EC01009721F4CB010E947216B4C0DE
:102F4000FC01E60FF71F9C0122503109E217F3073D
:102F500008F4A8C0D9010D911C9111970617170705
:102F6000B0F00530110508F49BC0C801049786171E
:102F7000970708F495C002501109061B170B01931F
:102F800011936D937C93CF010E940A1789C05B0156
:102F9000A01AB10A4C01800E911EA0915A07B0915F
:102FA0005B07612C712CE12CF12C109709F446C0C1
:102FB0008D919C911197A815B905B1F56C0142E06E
:102FC000C40ED11CCA14DB0478F14C018A189B088A
:102FD000640142E0C40ED11C1296BC901297139665
:102FE000AC91B5E0CB16D10440F0B282A3839182BC
:102FF0008082D9016D937C9309C00E5F1F4F800FB3
:10300000911FF90191838083EB2DFA2FE114F104D4
:1030100031F0D7011396FC93EE93129741C0F093D1
:103020005B07E0935A073CC06816790608F43C0138
:103030007D0112960D90BC91A02DB7CF80915807BD
:103040009091590788169906E1F466167706C8F438
:103050008091680190916901009741F48DB79EB706
:1030600040916C0150916D01841B950BE817F90795
:10307000C8F4F0935907E0935807F901718360830E
:103080000FC0CB010E9472167C01009759F0A80175
:10309000BE010E945C18CE010E940A17C70104C03D
:1030A000CE0102C080E090E0CDB7DEB7EEE00C9438
:1030B000B418F8940C94CB18FB01DC0102C0019009
:1030C0000D9241505040D8F70895FB01DC0101906A
:1030D0000D920020E1F70895A1E21A2EAA1BBB1B56
:1030E000FD010DC0AA1FBB1FEE1FFF1FA217B307D4
:1030F000E407F50720F0A21BB30BE40BF50B661FEA
:10310000771F881F991F1A9469F7609570958095AD
:1031100090959B01AC01BD01CF010895EE0FFF1FFB
:103120000590F491E02D09942F923F924F925F9277
:103130006F927F928F929F92AF92BF92CF92DF92C7
:10314000EF92FF920F931F93CF93DF93CDB7DEB72C
:10315000CA1BDB0B0FB6F894DEBF0FBECDBF0994C0
:103160002A88398848885F846E847D848C849B8417
:10317000AA84B984C884DF80EE80FD800C811B8125
:10318000AA81B981CE0FD11D0FB6F894DEBF0FBE54
:0A319000CDBFED010895F894FFCFC4
:10319A000000000000000000000000000000000025
:1031AA000000000000000000000000000000000015
:1031BA000000000000000000000000000000000005
:1031CA0000000000000000000000000000000000F5
:1031DA0000000000000000000000000000000000E5
:1031EA0000000000000000000000000000000000D5
:1031FA00000000000000000000005C072000FF0142
:10320A0000FFFFFFFFFFFFFFFF0000A402000041D5
:10321A0003FFFFFFFFFFFFFFFF00004F0200000058
:10322A000014000000140000000258020000000010
:10323A00140000001400000002610200000000C82F
:10324A00000000C8000000020000000400000000A6
:10325A000200000000010001000000FFFF00000161
:10326A00000000000000000000000000000000054F
:10327A0000FF00000500FF00000300FF00006F0EC2
:10328A006F0E304050FF4D43503235313520636167
:10329A006E5F73656E6420696E696369616C697AD1
:1032AA0061646F20636F6D207375636573736F213B
:1032BA000054434D3A204D65737361676520546924
:1032CA006D656F75740054434D3A204572726F7282
:1032DA0020746F2073656E6400A9019A018B01C77F
:1032EA00018F0955020B0700C7018F095E020B0700
:1032FA0001C7018F0967020B0702C201BD01B801AC
:10330A004103960288027A02A402F6040806000122
:10331A002E0B000002040100F204F20300010E0B5E
:10332A00000001020100F404F8040001640B00002B
:10333A00000101000606080750004C0D00000300BA
:10334A000100E901E401DF010100010101000000BF
:10335A00002108EF07F807D10765056E07520597A0
:10336A0007730814071C072C09630865098C089859
:10337A0009D708CF090F07210AAF08840AC50AF638
:10338A00080D0A006E616E00696E66006F7666004F
:10339A000000000068158A133715B515091523159D
:0233AA001515F7
:00000001FF
