:100000000C94EE000C94960E0C94BD0E0C941601FC
:100010000C9416010C9416010C9416010C94160104
:100020000C9416010C9416010C9416010C941601F4
:100030000C9416010C9416010C9416010C941601E4
:100040000C94390D0C9416010C9484150C94B6156F
:100050000C9416010C9416010C9416010C941601C4
:100060000C9416010C9416013A11BA10BE10C2106D
:10007000C610CA10CD10D010D410D710DB10DE106F
:10008000E210E5103E11F410F8105811FC101D118B
:1000900000112511281103112F1107110A110D113B
:1000A00042111D112111251128112B112F1133116E
:1000B00037110000000800020100000304070000DF
:1000C000000000000000010204081020408001022E
:1000D000040810200102040810200404040404048D
:1000E00004040202020202020303030303030000EA
:1000F0000000230026002900000000002500280041
:100100002B0000000000240027002A0052657475AF
:10011000726E696E6720746F2050726576696F75B4
:1001200073204D6F6465204661696C7572652E2E73
:100130002E006053657474696E67204944204D6FCA
:100140006465204661696C7572652E2E2E005365BC
:100150007474696E672042617564726174652053BE
:1001600075636365737366756C2100536574746998
:100170006E67204261756472617465204661696CC6
:100180007572652E2E2E00456E746572696E67203D
:10019000436F6E66696775726174696F6E204D6F2B
:1001A0006465205375636365737366756C210045E0
:1001B0006E746572696E6720436F6E6669677572EB
:1001C0006174696F6E204D6F6465204661696C755E
:1001D00072652E2E2E00720C900EDC1511241FBE9F
:1001E000CFEFD8E0DEBFCDBF13E0A0E0B1E0E6EB9B
:1001F000F3E302C005900D92AC35B107D9F727E0C3
:10020000ACE5B3E001C01D92AA3BB207E1F710E0F4
:10021000CEEED0E004C02197FE010E94D319CB3E60
:10022000D107C9F70E94810E0C9472170C9400003C
:10023000E2E10E94BD010895E9E00E94BD01089538
:10024000EAE00E94BD010895E1E00E94BD01089529
:10025000E3E00E94BD010895E7E00E94BD0108951A
:10026000E5E00E94BD010895E0E00E94BD0108950F
:10027000E2E00E94BD010895E4E00E94BD010895FE
:10028000ECE00E94BD010895E8E00E94BD010895E0
:10029000EEE00E94BD010895E4E10E94BD010895D1
:1002A000E0E10E94BD010895E7E10E94BD010895CB
:1002B000E6E00E94BD010895EBE00E94BD010895B3
:1002C000EDE00E94BD010895EFE00E94BD01089598
:1002D000E1E10E94BD010895E3E10E94BD0108959E
:1002E000E5E10E94BD010895E6E10E94BD01089587
:1002F00021968A929A92AA92BA92CA92DA92EA9233
:10030000FA920A931A932197E0916B01F0916C0194
:100310000080F181E02DC083D1830895C0916D01EB
:10032000D0916E01E881F981C081D1812196199126
:100330000991F990E990D990C990B990A9909990B4
:100340008990219708952F903F90E7E6F1E0CDB78F
:10035000DEB7EDBFFEBF3F922F9208952F903F90E2
:10036000CDBFDEBF3F922F920895E0E80E94BD010D
:100370000895E0E40E94BD0108952F923F924F92AC
:100380005F926F927F922FB62F92CF93DF937E2E44
:10039000F894E0910001EF5FE0930001E13011F487
:1003A0000E94A301E0E0E0937B01E72DE07849F0B3
:1003B0000E944806F0917C01F17071F00E94CA041D
:1003C0000BC0E72DEC3140F4EE0FF0E0E55FFC4FA1
:1003D0000190F081E02D0995F0917B01EF2FE17004
:1003E00059F0F27011F00E9478018F938F2F0E94C4
:1003F00012048F910E948E012091000121502093C0
:100400000001222311F40E94AE01DF91CF912F90C1
:100410002FBE7F906F905F904F903F902F900895E8
:10042000CF92DF92EF92FF920F931F93DC01EC913A
:10043000DB012C918E2F8170C82ED12CE12CF12C58
:100440008E2F8F7090E0A0E0B0E0B695A7959795BD
:100450008795DC01A456BC4F8C91C81AD108E108DD
:10046000F108EE70422F417050E060E070E0822FA2
:100470008F7090E0A0E0B0E0B695A795979587952E
:10048000DC01A456BC4F8C91481B510961097109CC
:10049000822F8E7097018601017011272227332742
:1004A0000E2B4170552766277727482B81E090E077
:1004B000041715072607370710F080E090E01F911A
:1004C0000F91FF90EF90DF90CF9008958F929F92C1
:1004D000AF92BF92EF92FF920F931F93CF93DF9350
:1004E0007C014A015B01B694A794979487944230AB
:1004F000510561057105E0F0440F551F8701040F98
:10050000151FE401CC0FDD1FCE0DDF1DB801CE019C
:100510000E941002892B61F0F8019081818128816D
:1005200039813183208398838983B501A401DBCF8E
:10053000DF91CF911F910F91FF90EF90BF90AF90FF
:100540009F908F9008954F925F926F927F928F92BB
:100550009F92AF92BF92CF92DF92EF92FF920F9352
:100560001F93CF93DF9300D000D000D0CDB7DEB77C
:100570008C016A017B01DC018C91282F30E040E086
:1005800050E029833A834B835C8346015701880CF2
:10059000991CAA1CBB1C29813A814B815C812815BE
:1005A00039054A055B0508F442C0240135013FEFD7
:1005B000431A530A630A730A89819A81AB81BC8109
:1005C00084159505A605B70580F0B201660F771F63
:1005D000600F711FC401880F991F800F911F0E9427
:1005E0001002892B11F0530142013401660C771C73
:1005F000600E711ECC0CDD1CD801AC0DBD1DBE8380
:10060000AD83B301CD010E941002892B81F0ED81F1
:10061000FE8190818181D3012D913C91119731838D
:1006200020839C9311968C9375016401AECF26961E
:100630000FB6F894DEBF0FBECDBFDF91CF911F91F3
:100640000F91FF90EF90DF90CF90BF90AF909F9071
:100650008F907F906F905F904F900895E8E5F6E05F
:1006600040814F5F408350E060E070E0E82FEE0F84
:10067000FF0BE454FD4F0190F081E02D238530E025
:10068000F901E456FC4F908191509083FA01EE0FEE
:10069000FF1FE85AF94F220F331F9170292B208337
:1006A000818388E596E00C946602E8E5F6E04081F7
:1006B0004F5F408350E060E070E0E82FEE0FFF0BEB
:1006C000EC54FD4F0190F081E02D9381FA01EE0F83
:1006D000FF1FE85AF94F9083818388E596E00C94D8
:1006E0006602CF93DF93E8E5F6E080819FEF980FF5
:1006F0009083D281C38190E0880F991FDC01A85AB2
:10070000B94F8D919C919383828341E050E060E0EA
:1007100070E0CF010E94A3028D2F9C2FDF91CF911B
:10072000089580915C03811114C0809173019091B0
:100730007401A0917501B09176018F3F2FEF920760
:10074000A207B20741F00397A105B10534F481E097
:10075000089584E0089580E0089582E00895880F68
:10076000990BFC01E454FD4F0190F081E02D0084D1
:10077000F185E02D3097E9F0228121111AC021E0A6
:100780002283DC01AC54BD4F0D90BC91A02D13967B
:100790008C9113978183808190E0FC01E456FC4F9B
:1007A000208121502083880F991F2170822B13965E
:1007B0008C930895880F990BFC01E454FD4F019030
:1007C000F081E02D0084F185E02D309761F02281E9
:1007D000213049F412822181FC01EC54FD4F01903B
:1007E000F081E02D23830895809177019091780125
:1007F000A0917901B0917A014091730150917401F7
:100800006091750170917601481759076A077B0757
:1008100041F0E0917101F091720121E024830C9488
:1008200055030895CF93DF93882391F0C0916B0116
:10083000D0916C01E0916F01F0917001848183305F
:1008400049F081E08483809173010E94550302C0C6
:10085000C0E0D0E0E0917101F0917201F09370017D
:10086000E0936F0180916D0190916E0190936C0106
:1008700080936B018091770130917801209179010B
:1008800090917A01809373013093740120937501E4
:100890009093760192E094830E94AF03CE01DF91A2
:1008A000CF910895809173010E94DA03E0916F0166
:1008B000F09170018281882319F085E08483089586
:1008C00014820895CF93DF93282F220F330BF90161
:1008D000EC54FD4FC081D1819A81F901E454FD4F60
:1008E0000190F081E02D2485921770F4911105C0DC
:1008F00095E09C8391E090937C010E942E038A8175
:100900008F5F8A8380E001C084E0DF91CF910895FA
:10091000E82FEE0FFF0BEC54FD4F0190F081E02D1E
:10092000118210820C943B0E1F93CF93DF930E9491
:100930007103182F892F492F092E000C550B660BB8
:10094000770B40937701509378016093790170930E
:100950007A01292F220F330BF901EC54FD4FC0818E
:10096000D181D0937201C0937101F901E454FD4F1C
:100970002081318130936E0120936D019C819530EF
:1009800019F40E9488041B8310927C01DF91CF919F
:100990001F910895E0917701F0917801EE0FFF1F0C
:1009A000EC54FD4F0190F081E02D90915A06838127
:1009B000891730F40E94F4030E94940483E001C07C
:1009C00080E080937B01089581E080937B010C940B
:1009D0009404EF92FF920F931F93CF93DF93C1E0A4
:1009E00001C0CC0F8A95EAF72091C2023091C30270
:1009F0008091BA029091BB021092580610926C013D
:100A000010926B0130936E0120936D011092700172
:100A100010926F0190937201809371018FEF9FEF9D
:100A2000DC018093730190937401A0937501B093DE
:100A300076018093770190937801A0937901B09328
:100A40007A0110927B0110927C0183E00E94620483
:100A500007E013E0D0E0F80181918F018C2319F0B9
:100A60008D2F0E946204DF5FD330A9F704E013E00A
:100A700083E9E82E82E0F82ED1E0F80181918F0120
:100A80008C2339F0F70180819181FC01D6870E9487
:100A90008105F2E0EF0EF11C83E00730180769F7DB
:100AA000DF91CF911F910F91FF90EF9008950E94D9
:100AB0002F0781110E945007E0916F01F0917001A2
:100AC00080819181892B21F0809173010E94170907
:100AD0000C9478080E942F0781110E945007E09122
:100AE0006F01F091700180819181892B21F08091BB
:100AF00073010E9417090C94600881E080935D03E4
:100B00000895AF92BF92CF92DF92EF92FF920F9330
:100B10001F93CF93DF93FC01A081B181AD90BC9076
:100B2000E501AC89BD89109739F04285538564850C
:100B3000758530E020E017C0D50155969C938E93C3
:100B4000549757969C938E935697158214821382CE
:100B500012825BC012968D919C9113973A2F2B2F86
:100B6000009779F0DC011A96CD90DD90ED90FC9025
:100B70001D974C155D056E057F0560F7CD01A32F10
:100B8000B22F93838283B583A483009719F0EC017D
:100B9000FD83EC83109729F01396FC93EE93129744
:100BA00005C0D5015596FC93EE935497E501AE89A7
:100BB000BF891A968D919D910D90BC91A02D0889A9
:100BC00019892A893B8980179107A207B30780F406
:100BD000041715072607370728F0481759076A072B
:100BE0007B0798F4D5015796FC93EE9356970DC06A
:100BF000041715072607370740F4481759076A07EF
:100C00007B0718F4E501FF8BEE8BDF91CF911F91ED
:100C10000F91FF90EF90DF90CF90BF90AF9008952D
:100C2000CF93DF93DC01ED91FC9111970190F0815E
:100C3000E02D848995891296CD91DC911397A817A0
:100C4000B90711F4D58BC48B86899789A817B90782
:100C500011F4D78BC68B209731F014968D919C910F
:100C600015979D838C8314960D90BC91A02D1097A1
:100C700021F01396DC93CE93129786899789892B5E
:100C800021F484899589978B868BDF91CF91089584
:100C9000EF92FF920F931F93CF93DF93FC0180910C
:100CA0005D03882309F4B5C084859585A685B7853D
:100CB0000196A11DB11D84879587A687B7874081BE
:100CC00051816281738184179507A607B70709F0E0
:100CD000A0C040895189628973894F5F5F4F6F4F10
:100CE0007F4F84819581A681B78184179507A607D8
:100CF000B70718F440E050E0BA01408B518B628B8B
:100D0000738B1486158616861786C689D789209711
:100D100009F47FC08A859B85AC85BD854817590736
:100D20006A077B0709F075C0CE01DC011296ED90D1
:100D3000FC901397E114F10471F0D7011A960D910C
:100D40001D912D913C911D97401751076207730724
:100D500011F4C701EACF2C813D812115310529F01D
:100D6000D9011396FC92EE921297E114F10429F046
:100D7000D70115963C932E93149724893589C21771
:100D8000D30711F4F58AE48AE114F10419F0F78A23
:100D9000E68A04C024893589378B268B8F01FC01B4
:100DA00013821282EA80FB80E881F9810280F3815C
:100DB000E02DCE0109954E815F81688579854115C9
:100DC00051056105710509F18A859B85AC85BD8555
:100DD000840F951FA61FB71FF801448155816681B6
:100DE0007781481759076A077B0738F4841B950BEE
:100DF000A60BB70B0197A109B1098A879B87AC871E
:100E0000BD87CE010E94810501C01E86E7012097A3
:100E100049F6DF91CF911F910F91FF90EF900895C8
:100E2000FC0182810C9462040E942F07809168016A
:100E30000895809368010E94E9040E947D050C9446
:100E4000E4040C943A0ECF93C82F0E9491038111B1
:100E500002C00E94770E8C2FCF910C941C018091C0
:100E60006A038130D9F08091620390916303A0916D
:100E70006403B0916503892B8A2B8B2B79F481E075
:100E80004091660350916703609168037091690314
:100E9000452B462B472B19F480E0089581E00895F7
:100EA00010926A031092660310926703109268030F
:100EB000109269031092620310926303109264030C
:100EC0001092650380915E0390915F03A09160038F
:100ED000B091610380936B0390936C03A0936D03B7
:100EE000B0936E0308950E947A0E80916B039091E7
:100EF0006C03A0916D03B0916E030196A11DB11D0D
:100F000080936B0390936C03A0936D03B0936E0377
:100F10008091660390916703A0916803B091690383
:100F20000196A11DB11D8093660390936703A09362
:100F30006803B093690308958091660390916703F5
:100F4000A0916803B09169030097A105B10569F10B
:100F500040916B0350916C0360916D0370916E032F
:100F6000415051096109710940936B0350936C031F
:100F700060936D0370936E030197A109B10980938B
:100F8000660390936703A0936803B093690380910D
:100F90006B0390916C03A0916D03B0916E03892B4C
:100FA0008A2B8B2B11F40C94780E08958091660394
:100FB00090916703A0916803B0916903892B8A2BF4
:100FC0008B2B89F48091620390916303A091640359
:100FD000B0916503892B8A2B8B2B29F40E947A0E02
:100FE00081E080936A03089580916A03882321F049
:100FF00010926A030C94780E08950E947E0E8091E0
:101000006B0390916C03A0916D03B0916E030196F8
:10101000A11DB11D80936B0390936C03A0936D038E
:10102000B0936E038091620390916303A091640377
:10103000B09165030196A11DB11D80936203909349
:101040006303A0936403B0936503089580916203E2
:1010500090916303A0916403B09165030097A1058B
:10106000B10569F140916B0350916C0360916D0380
:1010700070916E03415051096109710940936B03EE
:1010800050936C0360936D0370936E030197A109F5
:10109000B1098093620390936303A0936403B093B8
:1010A000650380916B0390916C03A0916D03B091E7
:1010B0006E03892B8A2B8B2B11F40C947C0E0895D4
:1010C0000E942F07882311F083E1089580E008959E
:1010D000CF93C82F0E942F078C2F0E946204C82F25
:1010E00080917C0181110E94CA048C2FCF910895B8
:1010F000CF930E942F07882311F0C3E101C0C0E005
:10110000E0916F01F09170018281815082830E9491
:10111000520481E080937B010E9494048C2FCF9134
:101120000895CF93C82F0E942F07E0916F01F0918F
:1011300070018281815082838C2F0E946204C82FAB
:10114000811108C00E94520481E080937B010E94BB
:10115000940407C0E0916F01F091700182818F5F6C
:1011600082838C2FCF910895CF930E942F078823DD
:1011700011F0C3E101C0C0E0809173010E94DA0365
:101180000E94CA048091730190917401A09175012D
:10119000B091760140917701509178016091790189
:1011A00070917A0184179507A607B70711F40E947A
:1011B000AF038C2FCF910895CF93DF93EC010E9462
:1011C0002F07882311F083E101C080E04091730173
:1011D0005091740160917501709176014330510511
:1011E0006105710514F4488303C09091E40198836C
:1011F000DF91CF9108950F931F93CF93C82F8B0149
:101200000E942F07882311F083E101C080E0EC2FBA
:10121000EE0FFF0BEC54FD4F0190F081E02D948117
:101220009370F8019083CF911F910F910895880FCB
:10123000990BFC01EC54FD4FA081B181ED91FC9123
:101240001197309769F01D921C922091E4019381CF
:101250008481228314821382E92FF82F3097B9F703
:101260000895CF93C82F0E942F07882311F083E1A0
:1012700001C080E0EC2FF0E0EE0FFF1FE450FD4FC7
:10128000A081B1819091730112969C931297E09185
:101290006F01F09170012081318114963C932E935F
:1012A0001397B183A083938111969C9311972C91EE
:1012B00093819695921760F430E0D901A456BC4F03
:1012C0009C9191509C93220F331F9170292B238363
:1012D000CF910895CF93DF93C82F0E942F078823C3
:1012E00011F0D3E101C0D0E0EC2FF0E0EE0FFF1FD2
:1012F000E450FD4F0190F081E02DA0916F01B0917D
:101300007001818113968C931397838194818D93BF
:101310009C93148213828091E40182830E94CA0408
:101320008D2FDF91CF910895DC01ED91FC918481A7
:101330009581DC01ED91FC9109941F93CF93DF938C
:10134000182FEB010E942F07882311F083E101C0C1
:1013500080E0E12FF0E0EE0FFF1FED56FD4F019012
:10136000F081E02D0190F081E02D0190F081E02DE1
:1013700040815181628173814C835D836E837F8361
:101380004481558166817781488359836A837B8351
:101390004085518562857385488759876A877B8731
:1013A000DF91CF911F9108958F929F92AF92BF923C
:1013B000CF92DF92EF92FF920F931F93CF93C82F9C
:1013C0008B010E942F07882311F083E101C080E088
:1013D000EC2FF0E0EE0FFF1FED56FD4F0190F08176
:1013E000E02D9685913029F5428553856485758574
:1013F0000190F081E02D0190F081E02DC088D1882E
:10140000E288F3884C155D056E057F0540F4848005
:101410009580A680B780480D591D6A1D7B1D4C190B
:101420005D096E097F09F8014083518362837383EC
:1014300001C085E0CF911F910F91FF90EF90DF9059
:10144000CF90BF90AF909F908F9008958F929F9272
:10145000AF92BF92CF92DF92EF92FF920F931F93C2
:10146000CF93DF93D82F4A015B01680179010E9475
:101470002F07882311F0C3E101C0C0E0ED2FF0E099
:10148000EE0FFF1FED56FD4F0190F081E02D868598
:10149000811130C0A081B1810D90BC91A02D5096DA
:1014A0004D915D916D917C915397480D591D6A1D29
:1014B0007B1D14968D919D910D90BC91A02D84174C
:1014C0009507A607B70740F4481B590B6A0B7B0B1F
:1014D00041505109610971094287538764877587B3
:1014E000C682D782E086F18681E08687CF010E949E
:1014F000810501C0C7E08C2FDF91CF911F910F9123
:10150000FF90EF90DF90CF90BF90AF909F908F9023
:1015100008958F929F92AF92BF92CF92DF92EF92F7
:10152000FF920F931F93CF93DF93C82F4A015B0164
:10153000680179010E942F07882311F0D3E101C0CF
:10154000D0E0EC2FF0E0EE0FFF1FED56FD4F0190C5
:10155000F081E02D868581110EC082869386A48657
:10156000B586C682D782E086F18681E08687CF0184
:101570000E94810501C0D7E08D2FDF91CF911F918F
:101580000F91FF90EF90DF90CF90BF90AF909F9022
:101590008F9008950F931F93CF93DF93C82F0E94CE
:1015A0002F07882311F0D3E101C0D0E0EC2FF0E049
:1015B000EE0FFF1FED56FD4F00811181F80186856A
:1015C000813031F4C8010E941006F801168601C06E
:1015D000D5E08D2FDF91CF911F910F91089526E0D7
:1015E00040E052EC61E070E082EB93E00E94D7169D
:1015F00022E04DE063E08FE693E00E942A13882307
:1016000039F068EC70E080E090E00E94C20DF0CF0D
:1016100065EE71E082EB93E00E94391460E08FE6A2
:1016200093E00E94981060E082E00E94A50C6EEFAB
:1016300071E082EB93E00E9439146DE172E082EB7D
:1016400093E00E941A146CE372E082EB93E00C9436
:101650003914CF9382E00E94100D892B09F06DC0E0
:1016600029E833E041E953E062E973E08FE693E073
:101670000E9466138091920390919303A09194032A
:10168000B0919503BF7183309540A04FB84179F474
:10169000C09102038C2F0E945C0180918C0390E02A
:1016A00090938803809387038C2F0E946001809120
:1016B000920390919303A0919403B0919503BF710D
:1016C00081159440A04FBC40A9F4C09102038C2F17
:1016D0000E945C0180918D0390E0982F88272091D3
:1016E0008C03820F911D90938603809385038C2F2A
:1016F0000E9460018091920390919303A0919403C2
:10170000B0919503BF718115914FAE4FB841A9F4C7
:10171000C09102038C2F0E945C0180918B0390E0AA
:10172000982F882720918A03820F911D909384031C
:10173000809383038C2F0E946001CF910C9444010D
:10174000BF92CF92DF92EF92FF920F931F93CF93AE
:10175000DF93B09002038B2D0E945C010091870300
:1017600010918803C0918503D091860383E0CC0F4C
:10177000DD1F8A95E1F7609183037091840380E017
:1017800090E00E94881820E030E040E85BE30E948F
:101790003F1920E030E0A9010E9476176B017C011F
:1017A0008B2D0E946001B09003038B2D0E945C0181
:1017B000C8018E579109059730F40D571109109300
:1017C0006A01009369014091690150916A0120E228
:1017D00033E0429FC001439F900D529F900D112412
:1017E0008058934F8C179D0720F0D0939B03C09394
:1017F0009A0320E030E0A901C701B6010E943A191E
:1018000087FD12C020E030E04AE753E4C701B6018B
:101810000E94E217181644F0C0929603D0929703E4
:10182000E0929803F09299038B2D0E946001DF9162
:10183000CF911F910F91FF90EF90DF90CF90BF90CD
:101840000C944401CF93C09103038C2F0E945C0140
:101850006BE572E082EB93E00E941A1460919A03A8
:1018600070919B034AE050E082EB93E00E94A11448
:1018700066E672E082EB93E00E941A146BE672E077
:1018800082EB93E00E941A144091960350919703C3
:10189000609198037091990322E030E082EB93E02D
:1018A0000E9482156BE772E082EB93E00E941A14AB
:1018B00061E872E082EB93E00E941A146091690182
:1018C00070916A014AE050E082EB93E00E94A1141B
:1018D00082EB93E00E9423148C2F0E946001CF9131
:1018E0000C9444016AE08FE693E00C94171389EBA3
:1018F00091E00C94B5010895833081F028F4813093
:1019000099F08230A1F008958730A9F08830B9F0BD
:101910008430D1F4809180008F7D03C0809180005D
:101920008F7780938000089584B58F7702C084B547
:101930008F7D84BD08958091B0008F7703C0809122
:10194000B0008F7D8093B0000895CF93DF9390E037
:10195000FC01EA53FF4F2491FC01E652FF4F8491B2
:10196000882361F190E0880F991FFC01EE5FFE4F24
:10197000C591D491FC01E850FF4FA591B49161113C
:1019800009C09FB7F8948881209582238883EC91C1
:101990002E230BC0623061F49FB7F8948881322FF8
:1019A000309583238883EC912E2B2C939FBF06C008
:1019B0008FB7F894E8812E2B28838FBFDF91CF91CA
:1019C00008951F93CF93DF93282F30E0F901EE5451
:1019D000FF4F8491F901EA53FF4FD491F901E65288
:1019E000FF4FC491CC23C1F0162F81110E947C0CB3
:1019F000EC2FF0E0EE0FFF1FE850FF4FA591B491E0
:101A00009FB7F894111104C08C91D095D82302C0CF
:101A1000EC91DE2BDC939FBFDF91CF911F91089556
:101A2000CF93DF93282F30E0F901EE54FF4F8491DC
:101A3000F901EA53FF4FD491F901E652FF4FC491E7
:101A4000CC2391F081110E947C0CEC2FF0E0EE0F82
:101A5000FF1FE251FF4FA591B491EC91ED2381E07E
:101A600090E021F480E002C080E090E0DF91CF912F
:101A700008951F920F920FB60F9211242F933F9348
:101A80004F935F936F937F938F939F93AF93BF9386
:101A9000EF93FF938091A9039091AA03A091AB03C8
:101AA000B091AC033091A80323E0230F2D3720F42D
:101AB0000196A11DB11D05C026E8230F0296A11DA8
:101AC000B11D2093A8038093A9039093AA03A09328
:101AD000AB03B093AC038091AD039091AE03A091A2
:101AE000AF03B091B0030196A11DB11D8093AD036A
:101AF0009093AE03A093AF03B093B0030E94770C12
:101B0000FF91EF91BF91AF919F918F917F916F91D5
:101B10005F914F913F912F910F900FBE0F901F90AB
:101B200018952FB7F8946091A9037091AA0380913A
:101B3000AB039091AC032FBF08953FB7F894809109
:101B4000AD039091AE03A091AF03B091B00326B561
:101B5000A89B05C02F3F19F00196A11DB11D3FBFE5
:101B6000BA2FA92F982F8827820F911DA11DB11D73
:101B7000BC01CD0142E0660F771F881F991F4A956F
:101B8000D1F708958F929F92AF92BF92CF92DF923A
:101B9000EF92FF926B017C010E949D0D4B015C0155
:101BA000C114D104E104F10401F10E94380E0E9435
:101BB0009D0DDC01CB0188199909AA09BB09883E52
:101BC0009340A105B10560F321E0C21AD108E108F4
:101BD000F10888EE880E83E0981EA11CB11CC11488
:101BE000D104E104F10419F7DBCFFF90EF90DF900F
:101BF000CF90BF90AF909F908F90089584B58260F2
:101C000084BD84B5816084BD85B5826085BD85B5A0
:101C1000816085BDEEE6F0E0808181608083E1E84F
:101C2000F0E0108280818260808380818160808387
:101C3000E0E8F0E0808181608083E1EBF0E080818A
:101C400084608083E0EBF0E0808181608083EAE75C
:101C5000F0E08081846080838081826080838081E5
:101C6000816080838081806880831092C1000895A4
:101C70000895FFCFFFCFCF93DF93880F990BFC011F
:101C8000E454FD4FC081D181AC81BD8111978A811F
:101C90009B81A80FB91F2D85CD010197FD013297BA
:101CA000223019F42CE331E002C028E531E02C9316
:101CB000DC013C939E818F819083DF018E93CF0165
:101CC00007971E928A179B07E1F780E8DF011897B4
:101CD0008C93CF0144971E928A179B07E1F7A88146
:101CE000B9817597ED93FC93DF91CF910895089595
:101CF00078940895F894089578940895F894089540
:101D000008950E94FE0D0E94800E0E947B0C0E948E
:101D1000EF0A8091B1030E94230780E090E00895CC
:101D200080910A038093B103089508951F920F9242
:101D30000FB60F9211242F933F934F935F936F939E
:101D40007F938F939F93AF93BF93EF93FF93E09114
:101D5000E001F091E1010995FF91EF91BF91AF9101
:101D60009F918F917F916F915F914F913F912F91B3
:101D70000F900FBE0F901F9018951F920F920FB6E5
:101D80000F9211242F933F934F935F936F937F9301
:101D90008F939F93AF93BF93EF93FF93E091E201F3
:101DA000F091E3010995FF91EF91BF91AF919F9160
:101DB0008F917F916F915F914F913F912F910F90F4
:101DC0000FBE0F901F90189520915104222399F077
:101DD0004FB7F89420915104213059F42DB320933A
:101DE0004F043DB320915004209523232DBB4FBFBA
:101DF00002C040934F048CBD9DBD08958EBD000070
:101E00000DB407FEFDCF8EB508958091510488234F
:101E100061F09FB7F8942091510480914F042130D4
:101E200019F48DBB9FBF08958FBF0895CF93DF93A3
:101E3000EC0180E591E00E94E40E60E08A890E9456
:101E4000E10C80EC0E94FE0E61E08A890E94E10CA8
:101E50000E94050F65E070E080E090E0DF91CF9197
:101E60000C94C20D1F93CF93DF93EC01162F80E5E6
:101E700091E00E94E40E60E08A890E94E10C83E018
:101E80000E94FE0E812F0E94FE0E80E00E94FE0E38
:101E9000182F61E08A890E94E10C0E94050F812FB2
:101EA000DF91CF911F910895DF92EF92FF920F93F0
:101EB0001F93CF93DF938C01C62FD42EE52EF22EE5
:101EC00080E591E00E94E40E60E0F80182890E94C2
:101ED000E10C83E00E94FE0E8C2F0E94FE0ECD2DA1
:101EE000DE2DCE018F0D911D7C01EC16FD0629F033
:101EF00080E00E94FE0E8993F8CF61E0F8018289AC
:101F00000E94E10CDF91CF911F910F91FF90EF9014
:101F1000DF900C94050F0F931F93CF93DF93EC0189
:101F2000062F142F80E591E00E94E40E60E08A897C
:101F30000E94E10C82E00E94FE0E802F0E94FE0EA5
:101F4000812F0E94FE0E61E08A890E94E10CDF91E0
:101F5000CF911F910F910C94050FDF92EF92FF929A
:101F60000F931F93CF93DF938C01C62FD42EE52EB2
:101F7000F22E80E591E00E94E40E60E0F801828993
:101F80000E94E10C82E00E94FE0E8C2F0E94FE0E49
:101F9000CD2DDE2DCE018F0D911D7C01EC16FD06A1
:101FA00021F089910E94FE0EF9CF61E0F80182894B
:101FB0000E94E10CDF91CF911F910F91FF90EF9064
:101FC000DF900C94050FFF920F931F93CF93DF9335
:101FD000EC01F62E042F122F80E591E00E94E40E12
:101FE00060E08A890E94E10C85E00E94FE0E8F2D40
:101FF0000E94FE0E802F0E94FE0E812F0E94FE0E78
:1020000061E08A890E94E10CDF91CF911F910F91CD
:10201000FF900C94050F1F93CF93DF93EC0180E5A5
:1020200091E00E94E40E60E08A890E94E10C80EA5F
:102030000E94FE0E80E00E94FE0E182F61E08A8949
:102040000E94E10C0E94050F812FDF91CF911F911B
:102050000895EF92FF920F931F93CF93DF93EC01BC
:10206000162F0E94910D062FE12EF12C212F40EE0C
:102070006FE0CE010E94E30F6EE0CE010E94320FAE
:10208000807E90E08E159F0539F00E94910D601BB7
:10209000693C60F381E001C080E0DF91CF911F9146
:1020A0000F91FF90EF9008950F931F93CF93DF93BD
:1020B000EC01162F6EE00E94320F807E803221F5F7
:1020C000103211F16BE2CE010E94320F082F007422
:1020D00086FD06C020E440E46BE2CE010E94E30FDF
:1020E00020E440E46CE2CE010E94E30F60E6CE0102
:1020F0000E942910811116C0011106C020E040E4A1
:102100006BE2CE010E94E30F20E040E46CE2CE01DE
:102110000E94E30F612FCE01DF91CF911F910F91AC
:102120000C94291081E0DF91CF911F910F910895B8
:10213000FC01638B0C945410CF92DF92EF92FF92CC
:102140000F931F93CF93DF93342F3370313009F403
:102150003FC008F466C0323009F0AAC0062F10E074
:10216000F8013197EE30F10508F0A2C0EC5CFF4FAA
:102170000C94D319C4E8D6EF23E987C0C4E8D6EF9E
:1021800029E883C0C3E8D5EE27E87FC0C4E8D6EFCE
:1021900025E87BC0C4E8D6EF05C0C3E8D5EE02C091
:1021A000C1E8D3ED24E871C0C4E8D6EF02C0C3E8AB
:1021B000D5EE21E86AC0C4E8D6EF02C0C3E8D5EE88
:1021C00020E863C0C1E8D1ED2AC0C0E8D0EC27C048
:1021D000C62ED12CF6013197EE30F10508F068C01B
:1021E000EE5BFF4F0C94D319C4E8D6EF27E64DC041
:1021F000C4E8D6EF23E549C0C3E8D5EE2EE445C0D8
:10220000C4E8D6EF42C0C3E8D5EE23E43EC0C3E83D
:10221000D5EE27C0C3E8D5EE28C0C1E8DAEC20E04F
:1022200034C0062F10E0F8013697E930F10508F0C8
:102230003FC0E05BFF4F0C94D319C4E8D6EF29E40C
:1022400024C0C7E8DFEF24EC20C0C4E8D6EF05C007
:10225000C3E8D5EE02C0C1E8D3ED24E416C0C4E85B
:10226000D6EF21E412C0C4E8D6EF20E40EC0C2E8E5
:10227000D9EDD5CFC4E8D6EF27EA07C0C7E8DFEF2E
:102280002FE303C0C1E8D3ED28E142FDCF778C01F5
:10229000422F6AE20E948B0F4D2F69E2C8010E9413
:1022A0008B0F4C2F68E2C8010E948B0F80E001C0A9
:1022B00081E0DF91CF911F910F91FF90EF90DF9020
:1022C000CF9008950F931F93CF93DF9300D000D04A
:1022D000CDB7DEB7E62FF42FA901662777270C8349
:1022E0001B83F13081F4342F3C71242F2370F8E0EC
:1022F0003F9F200D112428602A8335E0569547958D
:102300003A95E1F70AC0242F2295220F207E2A83D6
:1023100023E0569547952A95E1F7498324E0AE01DD
:102320004F5F5F4F6E2F0E94AD0F0F900F900F9079
:102330000F90DF91CF911F910F9108950F931F93ED
:10234000CF93DF93EC0100E010E0980141E060E200
:102350000E94621100E010E0980141E064E2CE01C9
:102360000E94621100E010E0980141E060E0CE01BF
:102370000E94621100E010E0980140E064E0CE01AC
:102380000E94621100E010E0980141E068E0CE0197
:102390000E94621100E010E0980140E060E1CE018F
:1023A0000E94621100E010E0980141E064E1CE017A
:1023B0000E94621100E010E0980140E068E1CE0167
:1023C0000E94621110E340E0612FCE010E948B0F4A
:1023D00060E1610F40E0CE010E948B0F60E2610F6F
:1023E00040E0CE010E948B0F1F5F1E3361F740E07B
:1023F00060E6CE010E948B0F40E060E7CE01DF91E6
:10240000CF911F910F910C948B0FEF92FF920F932E
:102410001F93CF93DF93EC01062FF42EE22E0E9440
:10242000160F80E48B8B60E8CE010E945410182FA9
:10243000882341F06FEA71E082EB93E00E94271459
:10244000812F5CC067E871E082EB93E00E94271463
:102450004E2D6F2DCE010E949C10882339F06BE623
:1024600071E082EB93E00E94271447C06EE471E0B4
:1024700082EB93E00E942714CE010E949E1143E05C
:102480006BE2CE010E948B0F4CE36CE0CE010E9408
:102490008B0F40E06DE0CE010E948B0F002351F0C6
:1024A000033019F524E644E660E6CE010E94E30F0E
:1024B00020E607C024E044E660E6CE010E94E30F78
:1024C00020E040E660E7CE010E94E30F6B89CE0179
:1024D0000E945410C82F882381F06CE071E082EBD9
:1024E00093E00E9427148C2F09C062E371E082EB15
:1024F00093E00E94271481E001C080E0DF91CF913A
:102500001F910F91FF90EF900895EF92FF920F931C
:102510001F93CF93DF9300D000D0CDB7DEB77A0101
:102520008901FA011082F90110821182128213824C
:1025300024E0AE014F5F5F4F0E94540F2A81398122
:10254000822F90E065E0959587956A95E1F7F8E030
:102550003F9F800D911D1124092E000CAA0BBB0B6F
:10256000F80180839183A283B38323FF25C032E0E7
:10257000880F991FAA1FBB1F3A95D1F72370820FAE
:10258000911DA11DB11DBA2FA92F982F88272B812E
:10259000820F911DA11DB11DBA2FA92F982F882739
:1025A0002C81820F911DA11DB11D80839183A28377
:1025B000B38381E0F70180830F900F900F900F900D
:1025C000DF91CF911F910F91FF90EF9008950F939E
:1025D0001F93CF93DF93EC01162F9C012F5F3F4F8A
:1025E000AC010E9485126FEF610FCE010E94320F85
:1025F000082F64E0610FCE010E94320F893008F08D
:1026000088E08D8303FF03C081E08E8701C01E86B2
:102610002D812F702D83AE014A5F5F4F65E0610F02
:10262000CE01DF91CF911F910F910C94540FCF9356
:10263000DF93EC01862F6A8B61E00E94E10C61E080
:102640008A890E94A50C83E594E0998B888BDF91A1
:10265000CF910895FF920F931F93CF93DF93EC01D7
:10266000162F042FF22E0E943C172F2D402F612F82
:10267000CE010E94051291E0811101C090E0892FE6
:10268000DF91CF911F910F91FF900895CF93DF932A
:10269000EC010E940B1080FF07C061E6CE010E9492
:1026A000E71220E041E008C081FF0CC061E7CE01E5
:1026B0000E94E71220E042E06CE2CE010E94E30FAC
:1026C00080E001C084E0DF91CF910895CF92DF9246
:1026D000EF92FF920F931F93CF93DF93EC016B0167
:1026E0007A0189010E9446138430C1F188818823D0
:1026F00049F089819A81AB81BC81B06889839A83D2
:10270000AB83BC838E85882349F089819A81AB8114
:10271000BC81B06489839A83AB83BC838D8189300B
:1027200010F088E08D8389819A81AB81BC81F601AC
:1027300080839183A283B3838D81F7018083DE013F
:102740001696F8018D8190E09F01201B310B281710
:1027500039071CF48D918193F5CF80E0DF91CF9103
:102760001F910F91FF90EF90DF90CF900895CF923F
:10277000DF92EF92FF920F931F93CF93DF936C0141
:102780007A018B01C0E0D0E0CE15DF0581F0D801E1
:102790006D918D01D601ED91FC910190F081E02DBC
:1027A000C6010995892B11F02196EECF7E01C70154
:1027B000DF91CF911F910F91FF90EF90DF90CF901D
:1027C00008956115710579F0FB0101900020E9F78A
:1027D0003197AF01461B570BDC01ED91FC91028054
:1027E000F381E02D099480E090E00895EF92FF924C
:1027F0000F931F93CF93DF938C017B01C0E0D0E058
:10280000F701EC0FFD1F6491662361F0D801ED9193
:10281000FC910190F081E02DC8010995892B11F000
:102820002196EECFCE01DF91CF911F910F91FF90B6
:10283000EF9008950C94E113DC01ED91FC9101906F
:10284000F081E02D09946BE373E00C94E1130F9396
:102850001F93CF93DF93EC010E94F6138C01CE01FE
:102860000E942314800F911FDF91CF911F910F9130
:1028700008950F931F93CF93DF93EC010E94E11310
:102880008C01CE010E942314800F911FDF91CF9104
:102890001F910F9108958F929F92AF92BF92EF92E6
:1028A000FF920F931F93CF93DF93CDB7DEB7A1971E
:1028B0000FB6F894DEBF0FBECDBF7C01FA01CB018D
:1028C00019A2223008F42AE08E010F5D1F4F822EDC
:1028D000912CA12CB12CBF01A50194010E94B1192A
:1028E000F901CA01015011096A3014F4605D01C098
:1028F000695CD8016C93232B242B252B61F7B8013D
:10290000C7010E94E113A1960FB6F894DEBF0FBE77
:10291000CDBFDF91CF911F910F91FF90EF90BF90AE
:10292000AF909F908F9008952115310541F4DC01FF
:10293000ED91FC910190F081E02D642F09940C94AD
:102940004B149A01AB0160E070E00C9494147F92F8
:102950008F929F92AF92BF92CF92DF92EF92FF92AF
:102960000F931F93CF93DF938C016A017B01722E2B
:102970009A01AB01C701B6010E94AC19882319F076
:102980006EE373E027C046015701E894B7F82FEFD4
:102990003FEF4FE75FE7C501B4010E94AC19811119
:1029A0000DC02FEF3FEF4FE75FE7C501B4010E9475
:1029B000E21718161CF462E473E00CC02FEF3FEF2F
:1029C0004FE75FE4C701B6010E943A19181694F464
:1029D00066E473E0C801DF91CF911F910F91FF90E2
:1029E000EF90DF90CF90BF90AF909F908F907F90AF
:1029F0000C94E1132FEF3FEF4FE75FECC701B601F7
:102A00000E94E21787FDE4CF20E030E0A901C70172
:102A1000B6010E94E21787FF0AC06DE2C8010E945A
:102A20001C14EC01F7FAF094F7F8F09402C0C0E03F
:102A3000D0E0B12C60E070E080E09FE37B1441F0D7
:102A400020E030E040E251E40E94E717B394F6CF73
:102A5000A70196010E9476176B017C010E9459180C
:102A60004B015C012AE0AB01BC01C8010E944B1480
:102A7000C80FD91F7720B9F1C501B4010E94881889
:102A80009B01AC01C701B6010E9475176B017C0167
:102A90006EE2C8010E941C14C80FD91F20E030E06C
:102AA00040E251E4C701B6010E943F194B015C01AD
:102AB0000E9459186B017C014AE050E0C8010E9455
:102AC000A114C80FD91FB60180E090E00E948818B9
:102AD0009B01AC01C501B4010E9475176B017C011B
:102AE0007A947110DBCFCE01DF91CF911F910F91BE
:102AF000FF90EF90DF90CF90BF90AF909F908F901E
:102B00007F9008950C94A7141F920F920FB60F9206
:102B100011242F938F939F93EF93FF93E091C20320
:102B2000F091C3038081E091C803F091C90382FD55
:102B300012C090818091CB038F5F8F732091CC0363
:102B4000821751F0E091CB03F0E0EE54FC4F958FEB
:102B50008093CB0301C08081FF91EF919F918F9172
:102B60002F910F900FBE0F901F9018951F920F92EC
:102B70000FB60F9211242F933F934F935F936F9350
:102B80007F938F939F93AF93BF93EF93FF9382EBCA
:102B900093E00E944616FF91EF91BF91AF919F91F4
:102BA0008F917F916F915F914F913F912F910F90F6
:102BB0000FBE0F901F901895E2EBF3E01382128284
:102BC00088EE93E0A0E0B0E084839583A683B7838A
:102BD0008EE493E09183808385EC90E095878487F1
:102BE00084EC90E09787868780EC90E0918B808BD7
:102BF00081EC90E0938B828B82EC90E0958B848BC0
:102C000086EC90E0978B868B118E128E138E148E2D
:102C10000895FC01918D228D892F90E0805C9F4F5B
:102C2000821B91098F7399270895FC01918D828DE4
:102C3000981731F0828DE80FF11D858D90E0089591
:102C40008FEF9FEF0895FC01918D828D981761F0B1
:102C5000828DDF01A80FB11D5D968C91928D9F5FD3
:102C60009F73928F90E008958FEF9FEF0895FC017E
:102C7000538D448D252F30E0842F90E0821B930BE1
:102C8000541710F0CF96089501970895FC01848D94
:102C9000DF01A80FB11DA35ABF4F2C91848D90E086
:102CA00001968F739927848FA689B7892C93A08961
:102CB000B1898C91837080648C93938D848D9813EB
:102CC00006C00288F389E02D80818F7D808308957E
:102CD000EF92FF920F931F93CF93DF93EC0181E06C
:102CE000888F9B8D8C8D981305C0E889F989808128
:102CF00085FD26C0F62E0B8D10E00F5F1F4F0F7362
:102D00001127E02E8C8DE8120CC00FB607FCFACF0D
:102D1000E889F989808185FFF5CFCE010E944616AA
:102D2000F1CF8B8DFE01E80FF11DE35AFF4FF082CA
:102D30009FB7F8940B8FEA89FB89808180620AC073
:102D40009FB7F894EE89FF896083E889F9898081CB
:102D50008370806480839FBF81E090E0DF91CF919A
:102D60001F910F91FF90EF900895CF93DF93EC01A7
:102D7000888D8823C9F0EA89FB89808185FD05C09B
:102D8000A889B9898C9186FD0FC00FB607FCF5CFD5
:102D9000808185FFF2CFA889B9898C9185FFEDCF1D
:102DA000CE010E944616E7CFDF91CF910895CF92D2
:102DB000DF92EF92FF921F93CF93DF93EC016A01B2
:102DC0007B01122FE889F98982E080834115514EF9
:102DD00061057105B1F060E079E08DE390E0A70155
:102DE00096010E94B119DA01C9010197A109B1093F
:102DF000B695A795979587959C01211580E1380791
:102E0000A8F0E889F989108260E874E88EE190E022
:102E1000A70196010E94B119DA01C9010197A10920
:102E2000B109B695A795979587959C01EC85FD8589
:102E30003083EE85FF852083188EEC89FD89108311
:102E4000EA89FB89808180618083EA89FB898081AE
:102E500088608083EA89FB89808180688083EA8931
:102E6000FB8980818F7D8083DF91CF911F91FF90BF
:102E7000EF90DF90CF900895CF93CFB7F8948091E3
:102E80005204811127C0E4EEF0E08491E0EDF0E01F
:102E90009491E82FF0E0EE0FFF1FEE5FFE4FA5913B
:102EA000B491EC91E92321F461E08AE00E94E10C05
:102EB00061E08AE00E94A50C8CB580618CBD8CB568
:102EC00080648CBD61E08DE00E94A50C61E08BE028
:102ED0000E94A50C809152048F5F80935204CFBF53
:102EE000CF910895F8940C94D9195058BB27AA276C
:102EF0000E948D170C9400190E94F21838F00E945D
:102F0000F91820F039F49F3F19F426F40C94EF18C7
:102F10000EF4E095E7FB0C94E918E92F0E941119D3
:102F200058F3BA17620773078407950720F079F4FE
:102F3000A6F50C9433190EF4E0950B2EBA2FA02DA4
:102F40000B01B90190010C01CA01A0011124FF2756
:102F5000591B99F0593F50F4503E68F11A16F04051
:102F6000A22F232F342F4427585FF3CF4695379550
:102F70002795A795F0405395C9F77EF41F16BA0B15
:102F8000620B730B840BBAF09150A1F0FF0FBB1FC3
:102F9000661F771F881FC2F70EC0BA0F621F731F0C
:102FA000841F48F4879577956795B795F7959E3F69
:102FB00008F0B0CF9395880F08F09927EE0F9795FA
:102FC000879508950E94C51808F481E008950E942D
:102FD000FB170C9400190E94F91858F00E94F2187F
:102FE00040F029F45F3F29F00C94E91851110C943A
:102FF00034190C94EF180E94111968F39923B1F356
:10300000552391F3951B550BBB27AA27621773070E
:10301000840738F09F5F5F4F220F331F441FAA1FA2
:10302000A9F335D00E2E3AF0E0E832D0915050405E
:10303000E695001CCAF72BD0FE2F29D0660F771F0C
:10304000881FBB1F261737074807AB07B0E809F0F2
:10305000BB0B802DBF01FF2793585F4F3AF09E3F77
:10306000510578F00C94E9180C9434195F3FE4F39F
:10307000983ED4F3869577956795B795F7959F5FBA
:10308000C9F7880F911D9695879597F90895E1E006
:10309000660F771F881FBB1F621773078407BA0765
:1030A00020F0621B730B840BBA0BEE1F88F7E095C0
:1030B00008950E94191988F09F5798F0B92F992701
:1030C000B751B0F0E1F0660F771F881F991F1AF013
:1030D000BA95C9F714C0B13091F00E943319B1E02C
:1030E00008950C943319672F782F8827B85F39F02B
:1030F000B93FCCF3869577956795B395D9F73EF4AC
:1031000090958095709561957F4F8F4F9F4F089553
:10311000E89409C097FB3EF4909580957095619571
:103120007F4F8F4F9F4F9923A9F0F92F96E9BB2727
:103130009395F695879577956795B795F111F8CFA3
:10314000FAF4BB0F11F460FF1BC06F5F7F4F8F4F0E
:103150009F4F16C0882311F096E911C0772321F004
:103160009EE8872F762F05C0662371F096E8862F9C
:1031700070E060E02AF09A95660F771F881FDAF7F3
:10318000880F9695879597F90895990F0008550F20
:10319000AA0BE0E8FEEF16161706E807F907C0F0DD
:1031A00012161306E407F50798F0621B730B840BE5
:1031B000950B39F40A2661F0232B242B252B21F4BF
:1031C00008950A2609F4A140A6958FEF811D811D5F
:1031D000089597F99F6780E870E060E008959FEF99
:1031E00080EC089500240A9416161706180609069E
:1031F000089500240A94121613061406050608956D
:10320000092E0394000C11F4882352F0BB0F40F4F4
:10321000BF2B11F460FF04C06F5F7F4F8F4F9F4F34
:10322000089557FD9058440F551F59F05F3F71F0B6
:103230004795880F97FB991F61F09F3F79F087951D
:103240000895121613061406551FF2CF4695F1DFA6
:1032500008C0161617061806991FF1CF8695710536
:10326000610508940895E894BB2766277727CB016A
:1032700097F908950E94C51808F48FEF08950E94E9
:1032800052190C9400190E94F21838F00E94F91893
:1032900020F0952311F00C94E9180C94EF181124E8
:1032A0000C9434190E94111970F3959FC1F3950F76
:1032B00050E0551F629FF001729FBB27F00DB11DBA
:1032C000639FAA27F00DB11DAA1F649F6627B00D4A
:1032D000A11D661F829F2227B00DA11D621F739F33
:1032E000B00DA11D621F839FA00D611D221F749F41
:1032F0003327A00D611D231F849F600D211D822F88
:10330000762F6A2F11249F5750409AF0F1F08823AE
:103310004AF0EE0FFF1FBB1F661F771F881F9150DB
:103320005040A9F79E3F510580F00C94E9180C9489
:1033300034195F3FE4F3983ED4F38695779567950B
:10334000B795F795E7959F5FC1F7FE2B880F911D05
:103350009695879597F908950E94C518880B990B43
:103360000895A1E21A2EAA1BBB1BFD010DC0AA1FC6
:10337000BB1FEE1FFF1FA217B307E407F50720F0DE
:10338000A21BB30BE40BF50B661F771F881F991F59
:103390001A9469F760957095809590959B01AC01A2
:1033A000BD01CF010895EE0FFF1F0590F491E02DB0
:0633B0000994F894FFCF20
:1033B6000000000000000000000000000000000007
:1033C60000000000000000000000000000000000F7
:1033D60000000000000000000000000000000000E7
:1033E60000000000000000000000000000000000D7
:1033F60000000000000000000000000000000000C7
:1034060000000000000000000000000000000000B6
:103416000000000000000000FF01000000EE0200B6
:1034260000A303FFFFFFFFFFFFFFFF00009902005D
:10343600000000F4010000F401000002A2020000F6
:103446000000640000006400000002AB02000000FF
:10345600000A0000000A000000020000000400004C
:1034660000000200000000010001000000FFFF0054
:103476000001000000000000000000000000000045
:10348600000500FF00000500FF00000300FF00002C
:10349600950E950EFF4D6F64756C6F2043414E205F
:1034A600696E696369616C697A61646F21004D4375
:1034B6005032353135206578656D706C6F206361EB
:1034C6006E5F726563656976652E2E2E0049440926
:1034D600095479706509444C430942797465300989
:1034E600427974653109427974653200094279740A
:1034F6006533094279746534094279746535094240
:103506007974653609427974653700526F74616360
:10351600616F203D20002052504D002C2056656CD6
:103526006F636964616465203D2000206B6D2F68C0
:10353600002C204D617263686120617475616C2096
:103546003D20009B018C017D01B90194099F021069
:103556000700B9019409A802100701B9019409B13D
:1035660002100702B401AF01AA01A303E002D202CE
:10357600C402EE025605BA060001290B0000020439
:103586000100660654040001A00B000001020100C0
:10359600540558050001220C0000000101006806D0
:1035A6006A065000390E000003000100DB01D60157
:1035B600D1010100010101000000002608F407FD09
:1035C60007D6076A05730757059C07780819072168
:1035D60007310968086A0991089D09DC08D40914AD
:1035E60007260AB408890ACA0AFB080D0A006E6192
:1035F6006E00696E66006F76660000000000681651
:0C360600B7133716B51609162316151653
:00000001FF
