:100000000C94EE000C942C100C9453100C941601CC
:100010000C9416010C9416010C9416010C94160104
:100020000C9416010C9416010C9416010C941601F4
:100030000C9416010C9416010C9416010C941601E4
:100040000C94080E0C9416010C9498170C94CA1773
:100050000C9416010C9416010C9416010C941601C4
:100060000C9416010C941601D0125012541258120E
:100070005C126012631266126A126D1271127412AF
:1000800078127B12D4128A128E12EE129212B312CE
:100090009612BB12BE129912C5129D12A012A31283
:1000A000D812B312B712BB12BE12C112C512C912B6
:1000B000CD12000000080002010000030407000048
:1000C000000000000000010204081020408001022E
:1000D000040810200102040810200404040404048D
:1000E00004040202020202020303030303030000EA
:1000F0000000230026002900000000002500280041
:100100002B0000000000240027002A0052657475AF
:10011000726E696E6720746F2050726576696F75B4
:1001200073204D6F6465204661696C7572652E2E73
:100130002E006053657474696E67204944204D6FCA
:100140006465204661696C7572652E2E2E005365BC
:100150007474696E672042617564726174652053BE
:1001600075636365737366756C2100536574746998
:100170006E67204261756472617465204661696CC6
:100180007572652E2E2E00456E746572696E67203D
:10019000436F6E66696775726174696F6E204D6F2B
:1001A0006465205375636365737366756C210045E0
:1001B0006E746572696E6720436F6E6669677572EB
:1001C0006174696F6E204D6F6465204661696C755E
:1001D00072652E2E2E00B20C5F0FF01711241FBE79
:1001E000CFEFD8E0DEBFCDBF13E0A0E0B1E0E6EA9C
:1001F000FBE302C005900D92A237B107D9F727E0C3
:10020000A2E7B3E001C01D92AF3CB207E1F710E0F6
:10021000CEEED0E004C02197FE010E94801DCB3EAF
:10022000D107C9F70E94500F0C946D1B0C9400006D
:10023000E2E10E94BD010895E9E00E94BD01089538
:10024000EAE00E94BD010895E1E00E94BD01089529
:10025000E3E00E94BD010895E7E00E94BD0108951A
:10026000E5E00E94BD010895E0E00E94BD0108950F
:10027000E2E00E94BD010895E4E00E94BD010895FE
:10028000ECE00E94BD010895E8E00E94BD010895E0
:10029000EEE00E94BD010895E4E10E94BD010895D1
:1002A000E0E10E94BD010895E7E10E94BD010895CB
:1002B000E6E00E94BD010895EBE00E94BD010895B3
:1002C000EDE00E94BD010895EFE00E94BD01089598
:1002D000E1E10E94BD010895E3E10E94BD0108959E
:1002E000E5E10E94BD010895E6E10E94BD01089587
:1002F00021968A929A92AA92BA92CA92DA92EA9233
:10030000FA920A931A932197E0918101F091820168
:100310000080F181E02DC083D1830895C0918301D5
:10032000D0918401E881F981C081D1812196199110
:100330000991F990E990D990C990B990A9909990B4
:100340008990219708952F903F90E7E6F1E0CDB78F
:10035000DEB7EDBFFEBF3F922F9208952F903F90E2
:10036000CDBFDEBF3F922F920895E0E80E94BD010D
:100370000895E0E40E94BD0108952F923F924F92AC
:100380005F926F927F922FB62F92CF93DF937E2E44
:10039000F894E0910001EF5FE0930001E13011F487
:1003A0000E94A301E0E0E0939101E72DE07849F09D
:1003B0000E945206F0919201F17071F00E94D404F3
:1003C0000BC0E72DEC3140F4EE0FF0E0EF5DFC4F99
:1003D0000190F081E02D0995F0919101EF2FE170EE
:1003E00059F0F27011F00E9478018F938F2F0E94C4
:1003F0001C048F910E948E012091000121502093B6
:100400000001222311F40E94AE01DF91CF912F90C1
:100410002FBE7F906F905F904F903F902F900895E8
:10042000CF92DF92EF92FF920F931F93DC01EC913A
:10043000DB012C918E2F8370C82ED12CE12CF12C56
:100440008E2F8F7190E0A0E0B0E032E0B695A795D6
:10045000979587953A95D1F7DC01A255BC4F8C91C1
:10046000C81AD108E108F108EC71422F437050E03E
:1004700060E070E0822F8F7190E0A0E0B0E0F2E0E9
:10048000B695A79597958795FA95D1F7DC01A25572
:10049000BC4F8C91481B510961097109822F8C71E5
:1004A0009701860103701127222733270E2B4370F3
:1004B000552766277727482B81E090E0041715071A
:1004C0002607370710F080E090E01F910F91FF9012
:1004D000EF90DF90CF9008958F929F92AF92BF924E
:1004E000EF92FF920F931F93CF93DF937C014A010A
:1004F0005B01B694A79497948794423051056105A7
:100500007105E0F0440F551F8701040F151FE4012A
:10051000CC0FDD1FCE0DDF1DB801CE010E941002F1
:10052000892B61F0F80190818181288139813183A3
:10053000208398838983B501A401DBCFDF91CF911C
:100540001F910F91FF90EF90BF90AF909F908F9071
:1005500008954F925F926F927F928F929F92AF9287
:10056000BF92CF92DF92EF92FF920F931F93CF93A0
:10057000DF9300D000D000D0CDB7DEB78C016A0188
:100580007B01DC018C91282F30E040E050E0298392
:100590003A834B835C8346015701880C991CAA1C43
:1005A000BB1C29813A814B815C81281539054A059C
:1005B0005B0508F442C0240135013FEF431A530A9A
:1005C000630A730A89819A81AB81BC818415950580
:1005D000A605B70580F0B201660F771F600F711F87
:1005E000C401880F991F800F911F0E941002892B50
:1005F00011F0530142013401660C771C600E711E2C
:10060000CC0CDD1CD801AC0DBD1DBE83AD83B30188
:10061000CD010E941002892B81F0ED81FE81908135
:100620008181D3012D913C911197318320839C933B
:1006300011968C9375016401AECF26960FB6F8948F
:10064000DEBF0FBECDBFDF91CF911F910F91FF9005
:10065000EF90DF90CF90BF90AF909F908F907F9062
:100660006F905F904F900895E9E6F6E040814F5F0C
:10067000408350E060E070E0E82FEE0FFF0BEE5299
:10068000FD4F0190F081E02D238530E0F901E25526
:10069000FC4F908191509083FA01EE0FFF1FE759B4
:1006A000F94F220F331F220F331F9370292B208302
:1006B000818389E696E00C946C02E9E6F6E04081DD
:1006C0004F5F408350E060E070E0E82FEE0FFF0BDB
:1006D000E653FD4F0190F081E02D9381FA01EE0F7A
:1006E000FF1FE759F94F9083818389E696E00C94C8
:1006F0006C02CF93DF93E9E6F6E080819FEF980FDD
:100700009083D281C38190E0880F991FDC01A759A3
:10071000B94F8D919C919383828341E050E060E0DA
:1007200070E0CF010E94A9028D2F9C2FDF91CF9105
:10073000089580917203811114C080918901909174
:100740008A01A0918B01B0918C018F3F2FEF92070E
:10075000A207B20741F00397A105B10534F481E087
:10076000089584E0089580E0089582E00895880F58
:10077000990BFC01EE52FD4F0190F081E02D0084B9
:10078000F185E02D3097F9F0228121111CC021E084
:100790002283DC01A653BD4F0D90BC91A02D139672
:1007A0008C9113978183808190E0FC01E255FC4F8E
:1007B000208121502083880F991F880F991F237053
:1007C000822B13968C930895880F990BFC01EE529F
:1007D000FD4F0190F081E02D0084F185E02D3097F0
:1007E00061F02281213049F412822181FC01E6531B
:1007F000FD4F0190F081E02D2383089580918D01BC
:1008000090918E01A0918F01B0919001409189014A
:1008100050918A0160918B0170918C0148175907A2
:100820006A077B0741F0E0918701F091880121E0A0
:1008300024830C945D030895CF93DF93882391F074
:10084000C0918101D0918201E0918501F0918601F2
:100850008481833049F081E08483809189010E9402
:100860005D0302C0C0E0D0E0E0918701F091880113
:10087000F0938601E093850180918301909184013A
:10088000909382018093810180918D0130918E013E
:1008900020918F01909190018093890130938A017A
:1008A00020938B0190938C0192E094830E94B70374
:1008B000CE01DF91CF910895809189010E94E403D8
:1008C000E0918501F09186018281882319F085E00D
:1008D0008483089514820895CF93DF93282F220FE5
:1008E000330BF901E653FD4FC081D1819A81F901A3
:1008F000EE52FD4F0190F081E02D2485921770F4A7
:10090000911105C095E09C8391E0909392010E9423
:1009100034038A818F5F8A8380E001C084E0DF91A5
:10092000CF910895E82FEE0FFF0BE653FD4F019096
:10093000F081E02D118210820C940A0F1F93CF9347
:10094000DF930E947903182F892F492F092E000C5D
:10095000550B660B770B40938D0150938E0160937E
:100960008F0170939001292F220F330BF901E65369
:10097000FD4FC081D181D0938801C0938701F901D7
:10098000EE52FD4F20813181309384012093830109
:100990009C81953019F40E9492041B83109292015D
:1009A000DF91CF911F910895E0918D01F0918E011B
:1009B000EE0FFF1FE653FD4F0190F081E02D909167
:1009C0006B068381891730F40E94FE030E949E0407
:1009D00083E001C080E080939101089581E08093DD
:1009E00091010C949E04EF92FF920F931F93CF936B
:1009F000DF93C1E001C0CC0F8A95EAF72091D802BD
:100A00003091D9028091D0029091D1021092690662
:100A1000109282011092810130938401209383010E
:100A2000109286011092850190938801809387012E
:100A30008FEF9FEFDC018093890190938A01A0934F
:100A40008B01B0938C0180938D0190938E01A093C4
:100A50008F01B0939001109291011092920183E066
:100A60000E946C040DE113E0D0E0F80181918F0148
:100A70008C2319F08D2F0E946C04DF5FD330A9F70F
:100A80000AE113E089EAE82E82E0F82ED1E0F801CD
:100A900081918F018C2339F0F70180819181FC01D4
:100AA000D6870E948B05F2E0EF0EF11C83E00D313A
:100AB000180769F7DF91CF911F910F91FF90EF9089
:100AC00008950E94390781110E945A07E09185011B
:100AD000F091860180819181892B21F0809189019B
:100AE0000E9421090C9482080E94390781110E94FA
:100AF0005A07E0918501F091860180819181892BCF
:100B000021F0809189010E9421090C946A0881E0FA
:100B1000809373030895AF92BF92CF92DF92EF92CA
:100B2000FF920F931F93CF93DF93FC01A081B181BC
:100B3000AD90BC90E501AC89BD89109739F0428534
:100B400053856485758530E020E017C0D501559642
:100B50009C938E93549757969C938E935697158299
:100B60001482138212825BC012968D919C9113970E
:100B70003A2F2B2F009779F0DC011A96CD90DD905B
:100B8000ED90FC901D974C155D056E057F0560F797
:100B9000CD01A32FB22F93838283B583A4830097C3
:100BA00019F0EC01FD83EC83109729F01396FC9368
:100BB000EE93129705C0D5015596FC93EE9354978A
:100BC000E501AE89BF891A968D919D910D90BC91DA
:100BD000A02D088919892A893B8980179107A207C6
:100BE000B30780F4041715072607370728F04817BE
:100BF00059076A077B0798F4D5015796FC93EE9343
:100C000056970DC0041715072607370740F44817F5
:100C100059076A077B0718F4E501FF8BEE8BDF911C
:100C2000CF911F910F91FF90EF90DF90CF90BF90E9
:100C3000AF900895CF93DF93DC01ED91FC91119774
:100C40000190F081E02D848995891296CD91DC91F7
:100C50001397A817B90711F4D58BC48B8689978988
:100C6000A817B90711F4D78BC68B209731F01496CB
:100C70008D919C9115979D838C8314960D90BC91BA
:100C8000A02D109721F01396DC93CE9312978689AE
:100C90009789892B21F484899589978B868BDF919D
:100CA000CF910895EF92FF920F931F93CF93DF930D
:100CB000FC0180917303882309F4B5C08485958570
:100CC000A685B7850196A11DB11D84879587A68746
:100CD000B787408151816281738184179507A60788
:100CE000B70709F0A0C040895189628973894F5FB5
:100CF0005F4F6F4F7F4F84819581A681B7818417A5
:100D00009507A607B70718F440E050E0BA01408BFA
:100D1000518B628B738B1486158616861786C6894F
:100D2000D789209709F47FC08A859B85AC85BD85CE
:100D3000481759076A077B0709F075C0CE01DC0127
:100D40001296ED90FC901397E114F10471F0D70125
:100D50001A960D911D912D913C911D9740175107A9
:100D60006207730711F4C701EACF2C813D81211579
:100D7000310529F0D9011396FC92EE921297E114F5
:100D8000F10429F0D70115963C932E9314972489EA
:100D90003589C217D30711F4F58AE48AE114F10406
:100DA00019F0F78AE68A04C024893589378B268BA7
:100DB0008F01FC0113821282EA80FB80E881F981B5
:100DC0000280F381E02DCE0109954E815F81688517
:100DD0007985411551056105710509F18A859B8564
:100DE000AC85BD85840F951FA61FB71FF8014481F0
:100DF000558166817781481759076A077B0738F460
:100E0000841B950BA60BB70B0197A109B1098A8723
:100E10009B87AC87BD87CE010E948B0501C01E86D3
:100E2000E701209749F6DF91CF911F910F91FF9035
:100E3000EF900895FC0182810C946C040E943907A4
:100E400080916E01089580936E010E94F3040E94C8
:100E500087050C94EE040C94090FCF93C82F0E94C1
:100E60009903811102C00E94460F8C2FCF910C94E0
:100E70001C01809180038130D9F08091780390919A
:100E80007903A0917A03B0917B03892B8A2B8B2B5A
:100E900079F481E040917C0350917D0360917E0361
:100EA00070917F03452B462B472B19F480E0089562
:100EB00081E008951092800310927C0310927D03CC
:100EC00010927E0310927F031092780310927903A0
:100ED00010927A0310927B038091740390917503B2
:100EE000A0917603B091770380938103909382035E
:100EF000A0938303B093840308950E94490F8091C7
:100F0000810390918203A0918303B09184030196A1
:100F1000A11DB11D8093810390938203A09383034D
:100F2000B093840380917C0390917D03A0917E0314
:100F3000B0917F030196A11DB11D80937C03909316
:100F40007D03A0937E03B0937F03089580917C037B
:100F500090917D03A0917E03B0917F030097A1053E
:100F6000B10569F14091810350918203609183033F
:100F700070918403415051096109710940938103C3
:100F80005093820360938303709384030197A109B4
:100F9000B10980937C0390937D03A0937E03B0936B
:100FA0007F038091810390918203A0918303B0918C
:100FB0008403892B8A2B8B2B11F40C94470F0895F3
:100FC00080917C0390917D03A0917E03B0917F037B
:100FD000892B8A2B8B2B89F480917803909179034C
:100FE000A0917A03B0917B03892B8A2B8B2B29F458
:100FF0000E94490F81E080938003089580918003CF
:10100000882321F0109280030C94470F08950E94CA
:101010004D0F8091810390918203A0918303B09141
:1010200084030196A11DB11D8093810390938203D7
:10103000A0938303B0938403809178039091790304
:10104000A0917A03B0917B030196A11DB11D8093FD
:10105000780390937903A0937A03B0937B03089568
:101060008091780390917903A0917A03B0917B03EA
:101070000097A105B10569F1409181035091820368
:101080006091830370918403415051096109710992
:10109000409381035093820360938303709384038E
:1010A0000197A109B1098093780390937903A093E4
:1010B0007A03B0937B038091810390918203A09186
:1010C0008303B0918403892B8A2B8B2B11F40C940E
:1010D0004B0F08950E943907882311F083E108958A
:1010E00080E00895CF93C82F0E9439078C2F0E946B
:1010F0006C04C82F8091920181110E94D4048C2F1E
:10110000CF910895CF930E943907882311F0C3E14E
:1011100001C0C0E0E0918501F0918601828181509B
:1011200082830E945C0481E0809391010E949E046E
:101130008C2FCF910895CF93C82F0E943907E0914B
:101140008501F09186018281815082838C2F0E94DB
:101150006C04C82F811108C00E945C0481E0809358
:1011600091010E949E0407C0E0918501F0918601E3
:1011700082818F5F82838C2FCF910895CF930E94BD
:101180003907882311F0C3E101C0C0E080918901D3
:101190000E94E4030E94D4048091890190918A0105
:1011A000A0918B01B0918C0140918D0150918E01E5
:1011B00060918F017091900184179507A607B7077A
:1011C00011F40E94B7038C2FCF910895CF93DF9332
:1011D000EC010E943907882311F083E101C080E00F
:1011E0004091890150918A0160918B0170918C012D
:1011F000433051056105710514F4488303C0909193
:1012000011029883DF91CF9108950F931F93CF938D
:10121000C82F8B010E943907882311F083E101C098
:1012200080E0EC2FEE0FFF0BE653FD4F0190F081B5
:10123000E02D94819370F8019083CF911F910F91CD
:101240000895880F990BFC01E653FD4FA081B181F1
:10125000ED91FC911197309769F01D921C922091AD
:10126000110293818481228314821382E92FF82F43
:101270003097B9F70895CF93C82F0E943907882374
:1012800011F083E101C080E0EC2FF0E0EE0FFF1FD2
:10129000EE5EFC4FA081B1819091890112969C93E2
:1012A0001297E0918501F091860120813181149699
:1012B0003C932E931397B183A083938111969C93B3
:1012C00011972C91938196959695921770F430E032
:1012D000D901A255BC4F9C9191509C93220F331F72
:1012E000220F331F9370292B2383CF910895CF931F
:1012F000DF93C82F0E943907882311F0D3E101C082
:10130000D0E0EC2FF0E0EE0FFF1FEE5EFC4F0190FF
:10131000F081E02DA0918501B09186018181139625
:101320008C931397838194818D939C931482138261
:101330008091110282830E94D4048D2FDF91CF917E
:101340000895DC01ED91FC9184819581DC01ED91A2
:10135000FC9109941F93CF93DF93182FEB010E9408
:101360003907882311F083E101C080E0E12FF0E02C
:10137000EE0FFF1FE755FD4F0190F081E02D01902A
:10138000F081E02D0190F081E02D4081518162815A
:1013900073814C835D836E837F8344815581668135
:1013A0007781488359836A837B8340855185628531
:1013B0007385488759876A877B87DF91CF911F9113
:1013C00008958F929F92AF92BF92CF92DF92EF9249
:1013D000FF920F931F93CF93C82F8B010E94390761
:1013E000882311F083E101C080E0EC2FF0E0EE0FE4
:1013F000FF1FE755FD4F0190F081E02D968591305C
:1014000029F542855385648575850190F081E02D2D
:101410000190F081E02DC088D188E288F3884C15D6
:101420005D056E057F0540F484809580A680B780B9
:10143000480D591D6A1D7B1D4C195D096E097F09F8
:10144000F801408351836283738301C085E0CF91AB
:101450001F910F91FF90EF90DF90CF90BF90AF90D2
:101460009F908F9008958F929F92AF92BF92CF924C
:10147000DF92EF92FF920F931F93CF93DF93D82FBA
:101480004A015B01680179010E943907882311F044
:10149000C3E101C0C0E0ED2FF0E0EE0FFF1FE75504
:1014A000FD4F0190F081E02D8685811130C0A08133
:1014B000B1810D90BC91A02D50964D915D916D9193
:1014C0007C915397480D591D6A1D7B1D14968D9173
:1014D0009D910D90BC91A02D84179507A607B70785
:1014E00040F4481B590B6A0B7B0B415051096109B1
:1014F00071094287538764877587C682D782E086E1
:10150000F18681E08687CF010E948B0501C0C7E08C
:101510008C2FDF91CF911F910F91FF90EF90DF9073
:10152000CF90BF90AF909F908F9008958F929F9291
:10153000AF92BF92CF92DF92EF92FF920F931F93E1
:10154000CF93DF93C82F4A015B01680179010E94A4
:101550003907882311F0D3E101C0D0E0EC2FF0E08F
:10156000EE0FFF1FE755FD4F0190F081E02D8685BE
:1015700081110EC082869386A486B586C682D782E4
:10158000E086F18681E08687CF010E948B0501C04D
:10159000D7E08D2FDF91CF911F910F91FF90EF90AA
:1015A000DF90CF90BF90AF909F908F9008950F9352
:1015B0001F93CF93DF93C82F0E943907882311F020
:1015C000D3E101C0D0E0EC2FF0E0EE0FFF1FE755B4
:1015D000FD4F00811181F8018685813031F4C80109
:1015E0000E941A06F801168601C0D5E08D2FDF9102
:1015F000CF911F910F91089526E040E052EC61E0F9
:1016000070E083EC93E00E94EB1822E04DE063E091
:1016100087E893E00E946C15882339F068EC70E04D
:1016200080E090E00E94910EF0CF62E172E083ECE6
:1016300093E00E94171760E087E893E00C942E1265
:101640004F925F926F927F928F929F92AF92BF92D2
:10165000CF92DF92EF92FF920F931F93CF93DF937E
:10166000CDB7DEB764970FB6F894DEBF0FBECDBF1F
:1016700084E1EAEFF1E0DE01119601900D928A9586
:10168000E1F710911903812F0E945C01E0916F0135
:10169000F09170013197EE0FFF1FEE0FFF1F81E0F9
:1016A00090E08C0F9D1FE80FF91FC080D180E28071
:1016B000F380812F0E94600100911803802F0E9407
:1016C0005C0160919F037091A00380E090E00E9414
:1016D000261C4B015C0129E739EE46EA5EE30E94D5
:1016E000DD1C20E537E746ED5DE30E94DD1C26E6C4
:1016F00036E646E650E40E94DD1C2B013C0123E364
:1017000033E343E650E4C701B6010E94DD1C9B01B0
:10171000AC01C301B2010E94851B6B017C0120E07A
:1017200030E040E05EE3C501B4010E94DD1C0E9490
:10173000F71B5B01802F0E946001812F0E945C01DA
:10174000A0927C01B0927D01812F0E94600120E077
:1017500030E0A901C701B6010E94D81C87FD12C064
:1017600020E030E04AE753E4C701B6010E94801B45
:10177000181644F0C0929B03D0929C03E0929D0304
:10178000F0929E0320E030E040E853E460919B0338
:1017900070919C0380919D0390919E030E94DD1C9B
:1017A0000E94F71BF62E072F812F0E945C01F092FA
:1017B000720100937301812F0E94600164960FB63D
:1017C000F894DEBF0FBECDBFDF91CF911F910F9177
:1017D000FF90EF90DF90CF90BF90AF909F908F9051
:1017E0007F906F905F904F900C94440182E00E9434
:1017F000DF0D892BB1F521EA33E049EA53E06AEACB
:1018000073E087E893E00E944D168091AA039091BF
:10181000AB03A091AC03B091AD03BF718330954091
:10182000A04FB841F1F48091A40390E020916F01A2
:1018300030917001215031092530310530F021E01F
:1018400030E03093700120936F019C012E573109D5
:101850002530310530F48D579109909370018093B4
:101860006F010895EF92FF920F9389E7E82E81E0D0
:10187000F82E08E021E040E054E060EF7CE087E8EB
:1018800093E00E941516882371F0873019F46DE3F8
:1018900072E002C068E572E083EC93E00F91FF9084
:1018A000EF900C9417170F91FF90EF900895EF921F
:1018B000FF920F9381E7E82E81E0F82E08E021E007
:1018C00040E051EF6EEF78E187E893E00E94151653
:1018D000882371F0873019F461E772E002C06EE886
:1018E00072E083EC93E00F91FF90EF900C94171748
:1018F0000F91FF90EF900895CF93C09119038C2F13
:101900000E945C010E94F60B8091850390918603F2
:10191000C296909386038093850364E670E00E94EC
:101920004A1D892B11F40E94320C809185039091FD
:1019300086036AEF70E00E944A1D892B11F40E9411
:10194000570C8091850390918603843F914024F049
:1019500010928603109285038C2F0E946001CF9114
:101960000C9444016AE087E893E00C945915FF92C7
:101970000F931F93CF93DF93CDB7DEB72D970FB69D
:10198000F894DEBF0FBECDBF83EC93E00E941D181C
:10199000181619060CF06CC047E050E0BE016F5FEE
:1019A0007F4F83EC93E00E94591789818D3209F0B3
:1019B00055C08A81873709F051C08B818D3309F07A
:1019C0004DC08C81082E000C990BC09728EE33E097
:1019D000829F8001839F100D929F100D11248D8195
:1019E000082E000C990BC09744E6489F9001499F30
:1019F000300D1124020F131F8E81082E000C990B3D
:101A0000C0974AE0489F9001499F300D1124020F72
:101A1000131F8F81082E000C990BC097080F191FF8
:101A200040916F015091700120E233E0429FC0016C
:101A3000439F900D529F900D11248058934F801713
:101A4000910760F0F09018038F2D0E945C011093B5
:101A5000A00300939F038F2D0E94600163EC73E04D
:101A6000CE0108960E947E17CE0108960E94640F50
:101A70000E9444012D960FB6F894DEBF0FBECDBF75
:101A8000DF91CF911F910F91FF9008958FEC91E01E
:101A90000C94B5010895833081F028F4813099F0D9
:101AA0008230A1F008958730A9F08830B9F08430F1
:101AB000D1F4809180008F7D03C0809180008F776A
:101AC00080938000089584B58F7702C084B58F7DA0
:101AD00084BD08958091B0008F7703C08091B000DD
:101AE0008F7D8093B0000895CF93DF9390E0FC0149
:101AF000EA53FF4F2491FC01E652FF4F8491882363
:101B000061F190E0880F991FFC01EE5FFE4FC591D7
:101B1000D491FC01E850FF4FA591B491611109C027
:101B20009FB7F8948881209582238883EC912E2397
:101B30000BC0623061F49FB7F8948881322F3095E2
:101B400083238883EC912E2B2C939FBF06C08FB7E5
:101B5000F894E8812E2B28838FBFDF91CF910895D1
:101B60001F93CF93DF93282F30E0F901EE54FF4FFE
:101B70008491F901EA53FF4FD491F901E652FF4FE6
:101B8000C491CC23C1F0162F81110E944B0DEC2F74
:101B9000F0E0EE0FFF1FE850FF4FA591B4919FB703
:101BA000F894111104C08C91D095D82302C0EC9107
:101BB000DE2BDC939FBFDF91CF911F910895CF93D0
:101BC000DF93282F30E0F901EE54FF4F8491F901A3
:101BD000EA53FF4FD491F901E652FF4FC491CC2351
:101BE00091F081110E944B0DEC2FF0E0EE0FFF1FE2
:101BF000E251FF4FA591B491EC91ED2381E090E08B
:101C000021F480E002C080E090E0DF91CF91089560
:101C10001F920F920FB60F9211242F933F934F9361
:101C20005F936F937F938F939F93AF93BF93EF9344
:101C3000FF938091BA039091BB03A091BC03B09134
:101C4000BD033091B90323E0230F2D3720F4019613
:101C5000A11DB11D05C026E8230F0296A11DB11DCF
:101C60002093B9038093BA039093BB03A093BC0362
:101C7000B093BD038091BE039091BF03A091C003B8
:101C8000B091C1030196A11DB11D8093BE03909335
:101C9000BF03A093C003B093C1030E94460DFF9100
:101CA000EF91BF91AF919F918F917F916F915F91D4
:101CB0004F913F912F910F900FBE0F901F9018954D
:101CC0002FB7F8946091BA037091BB038091BC0365
:101CD0009091BD032FBF08953FB7F8948091BE0344
:101CE0009091BF03A091C003B091C10326B5A89BFA
:101CF00005C02F3F19F00196A11DB11D3FBFBA2F9E
:101D0000A92F982F8827820F911DA11DB11DBC01FD
:101D1000CD0142E0660F771F881F991F4A95D1F7C2
:101D200008958F929F92AF92BF92CF92DF92EF92DF
:101D3000FF926B017C010E946C0E4B015C01C1148F
:101D4000D104E104F10401F10E94070F0E946C0E1E
:101D5000DC01CB0188199909AA09BB09883E934087
:101D6000A105B10560F321E0C21AD108E108F1082C
:101D700088EE880E83E0981EA11CB11CC114D1040A
:101D8000E104F10419F7DBCFFF90EF90DF90CF90E3
:101D9000BF90AF909F908F90089584B5826084BD6E
:101DA00084B5816084BD85B5826085BD85B581605F
:101DB00085BDEEE6F0E0808181608083E1E8F0E0BF
:101DC0001082808182608083808181608083E0E8EE
:101DD000F0E0808181608083E1EBF0E080818460CD
:101DE0008083E0EBF0E0808181608083EAE7F0E0CF
:101DF0008081846080838081826080838081816033
:101E000080838081806880831092C1000895089546
:101E1000FFCFFFCFCF93DF93880F990BFC01EE52DA
:101E2000FD4FC081D181AC81BD8111978A819B8199
:101E3000A80FB91F2D85CD010197FD0132972230E2
:101E400019F42CE331E002C028E531E02C93DC01E9
:101E50003C939E818F819083DF018E93CF01079702
:101E60001E928A179B07E1F780E8DF0118978C9391
:101E7000CF0144971E928A179B07E1F7A881B98189
:101E80007597ED93FC93DF91CF9108950895789421
:101E90000895F894089578940895F894089508950D
:101EA0000E94CD0E0E944F0F0E944A0D0E94FC0A14
:101EB0008091C2030E942D0780E090E008958091F8
:101EC00020038093C2030895FC01808191810097D3
:101ED00011F00C941E1A0895CF93DF93EC018881C2
:101EE0009981009711F00E941E1A198218821D8292
:101EF0001C821B821A82DF91CF9108950F931F934A
:101F0000CF93DF93EC018B016F5F7F4F88819981C5
:101F10000E94A71A009731F0998388831B830A8354
:101F200081E001C080E0DF91CF911F910F91089572
:101F3000CF93DF93EC0188819981892B29F08A81E5
:101F40009B818617970760F4CE010E947E0F88233D
:101F500041F08C819D81892B19F4E881F9811082EF
:101F600081E0DF91CF910895EF92FF920F931F933D
:101F7000CF93DF93EC017B018A01BA010E94980F95
:101F8000811104C0CE010E946C0F07C01D830C8319
:101F9000B701888199810E94791BCE01DF91CF9191
:101FA0001F910F91FF90EF900895FC011182108214
:101FB00013821282158214826115710551F0FB01A2
:101FC00001900020E9F73197AF01461B570B0C94A5
:101FD000B40F0895EF92FF920F931F93CF93DF9367
:101FE0006115710511F480E01CC041155105C1F067
:101FF0007B01EC018C819D818A01080F191FB801BA
:10200000CE010E94980F882371F3288139818C8139
:102010009D81B701820F931F0E94791B1D830C8342
:1020200081E0DF91CF911F910F91FF90EF90089584
:10203000CF93DF9300D0CDB7DEB769831A8241E03A
:1020400050E0BE016F5F7F4F0E94EA0F0F900F902C
:10205000DF91CF91089508951F920F920FB60F92BE
:1020600011242F933F934F935F936F937F938F939D
:102070009F93AF93BF93EF93FF93E091F601F0919D
:10208000F7010995FF91EF91BF91AF919F918F91CA
:102090007F916F915F914F913F912F910F900FBE64
:1020A0000F901F9018951F920F920FB60F92112448
:1020B0002F933F934F935F936F937F938F939F9350
:1020C000AF93BF93EF93FF93E091F801F091F90183
:1020D0000995FF91EF91BF91AF919F918F917F9162
:1020E0006F915F914F913F912F910F900FBE0F9085
:1020F0001F90189520916204222399F04FB7F8940D
:1021000020916204213059F42DB3209360043DB333
:1021100020916104209523232DBB4FBF02C0409323
:1021200060048CBD9DBD08958EBD00000DB407FEFA
:10213000FDCF8EB5089580916204882361F09FB72A
:10214000F8942091620480916004213019F48DBBD1
:102150009FBF08958FBF0895CF93DF93EC0180E573
:1021600091E00E947A1060E08A890E94B00D80ECB4
:102170000E94941061E08A890E94B00D0E949B1019
:1021800065E070E080E090E0DF91CF910C94910EDB
:102190001F93CF93DF93EC01162F80E591E00E940F
:1021A0007A1060E08A890E94B00D83E00E9494104A
:1021B000812F0E94941080E00E949410182F61E0FB
:1021C0008A890E94B00D0E949B10812FDF91CF91D0
:1021D0001F910895DF92EF92FF920F931F93CF9379
:1021E000DF938C01C62FD42EE52EF22E80E591E0F0
:1021F0000E947A1060E0F80182890E94B00D83E0AD
:102200000E9494108C2F0E949410CD2DDE2DCE01B3
:102210008F0D911D7C01EC16FD0629F080E00E94D7
:1022200094108993F8CF61E0F80182890E94B00D83
:10223000DF91CF911F910F91FF90EF90DF900C9461
:102240009B100F931F93CF93DF93EC01062F142F56
:1022500080E591E00E947A1060E08A890E94B00DCA
:1022600082E00E949410802F0E949410812F0E947F
:10227000941061E08A890E94B00DDF91CF911F9187
:102280000F910C949B10DF92EF92FF920F931F938C
:10229000CF93DF938C01C62FD42EE52EF22E80E54E
:1022A00091E00E947A1060E0F80182890E94B00DEE
:1022B00082E00E9494108C2F0E949410CD2DDE2D70
:1022C000CE018F0D911D7C01EC16FD0621F0899148
:1022D0000E949410F9CF61E0F80182890E94B00D4C
:1022E000DF91CF911F910F91FF90EF90DF900C94B1
:1022F0009B10FF920F931F93CF93DF93EC01F62E69
:10230000042F122F80E591E00E947A1060E08A8904
:102310000E94B00D85E00E9494108F2D0E949410B1
:10232000802F0E949410812F0E94941061E08A896E
:102330000E94B00DDF91CF911F910F91FF900C94EF
:102340009B101F93CF93DF93EC0180E591E00E94F7
:102350007A1060E08A890E94B00D80EA0E94941091
:1023600080E00E949410182F61E08A890E94B00DCD
:102370000E949B10812FDF91CF911F910895EF92C2
:10238000FF920F931F93CF93DF93EC01162F0E94C0
:10239000600E062FE12EF12C212F40EE6FE0CE01D2
:1023A0000E9479116EE0CE010E94C810807E90E0FC
:1023B0008E159F0539F00E94600E601B693C60F32A
:1023C00081E001C080E0DF91CF911F910F91FF90DC
:1023D000EF9008950F931F93CF93DF93EC01162F87
:1023E0006EE00E94C810807E803221F5103211F11B
:1023F0006BE2CE010E94C810082F007486FD06C053
:1024000020E440E46BE2CE010E94791120E440E434
:102410006CE2CE010E94791160E6CE010E94BF11EC
:10242000811116C0011106C020E040E46BE2CE012C
:102430000E94791120E040E46CE2CE010E94791103
:10244000612FCE01DF91CF911F910F910C94BF119D
:1024500081E0DF91CF911F910F910895FC01638B73
:102460000C94EA11CF92DF92EF92FF920F931F9399
:10247000CF93DF93342F3370313009F43FC008F429
:1024800066C0323009F0AAC0062F10E0F80131977B
:10249000EE30F10508F0A2C0EC5CFF4F0C94801DFB
:1024A000C4E8D6EF23E987C0C4E8D6EF29E883C0A3
:1024B000C3E8D5EE27E87FC0C4E8D6EF25E87BC0A7
:1024C000C4E8D6EF05C0C3E8D5EE02C0C1E8D3ED3D
:1024D00024E871C0C4E8D6EF02C0C3E8D5EE21E815
:1024E0006AC0C4E8D6EF02C0C3E8D5EE20E863C0F6
:1024F000C1E8D1ED2AC0C0E8D0EC27C0C62ED12C4F
:10250000F6013197EE30F10508F068C0EE5BFF4F41
:102510000C94801DC4E8D6EF27E64DC0C4E8D6EF82
:1025200023E549C0C3E8D5EE2EE445C0C4E8D6EFA4
:1025300042C0C3E8D5EE23E43EC0C3E8D5EE27C0D1
:10254000C3E8D5EE28C0C1E8DAEC20E034C0062F9D
:1025500010E0F8013697E930F10508F03FC0E05B84
:10256000FF4F0C94801DC4E8D6EF29E424C0C7E8CF
:10257000DFEF24EC20C0C4E8D6EF05C0C3E8D5EEF9
:1025800002C0C1E8D3ED24E416C0C4E8D6EF21E4CC
:1025900012C0C4E8D6EF20E40EC0C2E8D9EDD5CF12
:1025A000C4E8D6EF27EA07C0C7E8DFEF2FE303C090
:1025B000C1E8D3ED28E142FDCF778C01422F6AE2DA
:1025C0000E9421114D2F69E2C8010E9421114C2F58
:1025D00068E2C8010E94211180E001C081E0DF9122
:1025E000CF911F910F91FF90EF90DF90CF900895C2
:1025F0000F931F93CF93DF9300D000D0CDB7DEB7FA
:102600004130B1F40C831B83890122273327502FDB
:102610005C71402F437078E0579F400D1124486053
:102620004A8355E0169507955A95E1F709830DC041
:10263000A80123E0569547952A95E1F7498302952D
:10264000000F007E0A831C821B8224E0AE014F5FD4
:102650005F4F0E9443110F900F900F900F90DF91EA
:10266000CF911F910F9108950F931F93CF93DF93F5
:1026700000D000D0CDB7DEB7E62FF42FA901662732
:1026800077270C831B83F13081F4342F3C71242F86
:102690002370F8E03F9F200D112428602A8335E045
:1026A000569547953A95E1F70AC0242F2295220FB7
:1026B000207E2A8323E0569547952A95E1F74983A2
:1026C00024E0AE014F5F5F4F6E2F0E9443110F90C9
:1026D0000F900F900F90DF91CF911F910F91089560
:1026E0000F931F93CF93DF93EC0100E010E098016C
:1026F00041E060E20E94341300E010E0980141E004
:1027000064E2CE010E94341300E010E0980141E041
:1027100060E0CE010E94341300E010E0980140E038
:1027200064E0CE010E94341300E010E0980141E023
:1027300068E0CE010E94341300E010E0980140E010
:1027400060E1CE010E94341300E010E0980141E006
:1027500064E1CE010E94341300E010E0980140E0F3
:1027600068E1CE010E94341310E340E0612FCE01F6
:102770000E94211160E1610F40E0CE010E94211111
:1027800060E2610F40E0CE010E9421111F5F1E3305
:1027900061F740E060E6CE010E94211140E060E771
:1027A000CE01DF91CF911F910F910C942111EF92E7
:1027B000FF920F931F93CF93DF93EC01062FF42E1C
:1027C000E22E0E94AC1080E48B8B60E8CE010E9468
:1027D000EA11182F882341F06FEA71E083EC93E04F
:1027E0000E940517812F5CC067E871E083EC93E0DD
:1027F0000E9405174E2D6F2DCE010E9432128823A4
:1028000039F06BE671E083EC93E00E94051747C056
:102810006EE471E083EC93E00E940517CE010E9404
:10282000701343E06BE2CE010E9421114CE36CE097
:10283000CE010E94211140E06DE0CE010E942111E5
:10284000002351F0033019F524E644E660E6CE019A
:102850000E94791120E607C024E044E660E6CE013C
:102860000E94791120E040E660E7CE010E947911D4
:102870006B89CE010E94EA11C82F882381F06CE099
:1028800071E083EC93E00E9405178C2F09C062E38E
:1028900071E083EC93E00E94051781E001C080E0C5
:1028A000DF91CF911F910F91FF90EF900895EF92DC
:1028B000FF920F931F93CF93DF9300D000D0CDB73B
:1028C000DEB77A018901FA011082F90110821182C2
:1028D0001282138224E0AE014F5F5F4F0E94EA1024
:1028E0002A813981822F90E065E0959587956A95D8
:1028F000E1F7F8E03F9F800D911D1124092E000C97
:10290000AA0BBB0BF80180839183A283B38323FFBF
:1029100025C032E0880F991FAA1FBB1F3A95D1F737
:102920002370820F911DA11DB11DBA2FA92F982FC1
:1029300088272B81820F911DA11DB11DBA2FA92FB0
:10294000982F88272C81820F911DA11DB11D808396
:102950009183A283B38381E0F70180830F900F906E
:102960000F900F90DF91CF911F910F91FF90EF90FB
:102970000895FF920F931F93CF93DF93EC01F62EF0
:10298000AC014A5F5F4F65E06F0D2D810E944311DE
:102990008E85813019F48D8180648D8364E06F0DA4
:1029A0004D81CE010E94211109811A812B813C8128
:1029B00048816F2DCE010E94F812DF91CF911F91B7
:1029C0000F91FF9008950F931F93CF93DF93EC0126
:1029D000162F9C012F5F3F4FAC010E9457146FEFE1
:1029E000610FCE010E94C810082F64E0610FCE0174
:1029F0000E94C810893008F088E08D8303FF03C06F
:102A000081E08E8701C01E862D812F702D83AE013F
:102A10004A5F5F4F65E0610FCE01DF91CF911F915B
:102A20000F910C94EA108F929F92AF92BF92CF9227
:102A3000DF92EF92FF921F93CF93DF9300D01F920C
:102A4000CDB7DEB74C016B0180910E0290910F0261
:102A5000A091100289839A83AB83FB011082CE017F
:102A600001967C015E0194E0A90EB11CF701119161
:102A70007F01612FC4010E94C810982F987083FDB8
:102A800004C01F5FF601108304C0EA14FB0471F751
:102A900092E0892F0F900F900F90DF91CF911F91AF
:102AA000FF90EF90DF90CF90BF90AF909F908F906E
:102AB0000895CF93DF93EC01862F6A8B61E00E942B
:102AC000B00D61E08A890E94740D84E694E0998BD0
:102AD000888BDF91CF910895FF920F931F93CF932F
:102AE000DF93EC01162F042FF22E0E9450192F2D88
:102AF000402F612FCE010E94D71391E0811101C0B8
:102B000090E0892FDF91CF911F910F91FF90089551
:102B1000CF92DF92EF920F93FC0141835283638344
:102B200074832687008388E08E1510F0E58202C04A
:102B300088E08583858190E03696D6019D012C1929
:102B40003D09281739071CF42D912193F7CF80E018
:102B50000F91EF90DF90CF900895BF92CF92DF92C8
:102B6000EF92FF920F931F93CF93DF931F92CDB7F6
:102B7000DEB78C010E946C0E6B017C01BE016F5FA1
:102B80007F4FC8010E941315B82E0E946C0EDC0105
:102B9000CB018C199D09AE09BF0922E0B21206C013
:102BA000843C9940A105B10548F331C0843C99406B
:102BB000A105B10560F56981C8010E94B914698158
:102BC000615028E048E0C8010E9479110E946C0E13
:102BD0006B017C0169816150C8010E94C810B82E48
:102BE0000E946C0EDC01CB018C199D09AE09BF0956
:102BF000B3FE06C0843C9940A105B10558F309C055
:102C0000843C9940A105B10520F480E003C086E032
:102C100001C087E00F90DF91CF911F910F91FF903E
:102C2000EF90DF90CF90BF900895CF92DF92EF9218
:102C3000FF920F93CF93DF93EC016701E02E022FF9
:102C400020E00E948815CE01DF91CF910F91FF9077
:102C5000EF90DF90CF900C94AD15CF93DF93EC0104
:102C60000E94A11180FF07C061E6CE010E94E3141B
:102C700020E041E008C081FF0CC061E7CE010E9466
:102C8000E31420E042E06CE2CE010E94791180E082
:102C900001C084E0DF91CF910895CF92DF92EF924F
:102CA000FF920F931F93CF93DF93EC016B017A0197
:102CB00089010E942D168430C1F18881882349F052
:102CC00089819A81AB81BC81B06889839A83AB8307
:102CD000BC838E85882349F089819A81AB81BC8130
:102CE000B06489839A83AB83BC838D81893010F073
:102CF00088E08D8389819A81AB81BC81F6018083D4
:102D00009183A283B3838D81F7018083DE011696C0
:102D1000F8018D8190E09F01201B310B28173907A6
:102D20001CF48D918193F5CF80E0DF91CF911F91BD
:102D30000F91FF90EF90DF90CF900895CF92DF92A8
:102D4000EF92FF920F931F93CF93DF936C017A0161
:102D50008B01C0E0D0E0CE15DF0581F0D8016D9188
:102D60008D01D601ED91FC910190F081E02DC6011D
:102D70000995892B11F02196EECF7E01C701DF91D5
:102D8000CF911F910F91FF90EF90DF90CF9008951A
:102D90006115710579F0FB0101900020E9F7319789
:102DA000AF01461B570BDC01ED91FC910280F381D2
:102DB000E02D099480E090E00895EF92FF920F9348
:102DC0001F93CF93DF938C017B01C0E0D0E0F7012C
:102DD000EC0FFD1F6491662361F0D801ED91FC9129
:102DE0000190F081E02DC8010995892B11F0219601
:102DF000EECFCE01DF91CF911F910F91FF90EF9019
:102E0000089561E573E00C94C8160F931F93CF9358
:102E1000DF93EC010E94DD168C01CE010E940117A8
:102E2000800F911FDF91CF911F910F9108950F9304
:102E30001F93CF93DF93EC010E94C8168C01CE0143
:102E40000E940117800F911FDF91CF911F910F9169
:102E500008950F931F93CF93DF93EC010E94600EB0
:102E6000688779878A879B87E881F9810284F3855F
:102E7000E02DCE01099597FF17C00E94600E0885CE
:102E800019852A853B85DC01CB01801B910BA20BA8
:102E9000B30B0C811D812E813F8180179107A20702
:102EA000B30710F38FEF9FEFDF91CF911F910F9139
:102EB0000895CF92DF92EF92FF920F931F93CF93DB
:102EC000DF936C017A018B01C0E0D0E0CE15DF0505
:102ED00059F0C6010E94291797FD05C0F80181939A
:102EE0008F012196F3CF7E01C701DF91CF911F9112
:102EF0000F91FF90EF90DF90CF9008950F931F9365
:102F0000CF93DF93EC018B0163E573E00E94D50F53
:102F1000C8010E94291797FD05C0682FCE010E94A5
:102F20001810F6CFCE01DF91CF911F910F91089528
:102F30001F920F920FB60F9211242F938F939F938E
:102F4000EF93FF93E091D303F091D4038081E0915C
:102F5000D903F091DA0382FD12C090818091DC03E5
:102F60008F5F8F732091DD03821751F0E091DC03B6
:102F7000F0E0ED53FC4F958F8093DC0301C080811E
:102F8000FF91EF919F918F912F910F900FBE0F9016
:102F90001F9018951F920F920FB60F9211242F9326
:102FA0003F934F935F936F937F938F939F93AF93D1
:102FB000BF93EF93FF9383EC93E00E945A18FF9125
:102FC000EF91BF91AF919F918F917F916F915F91A1
:102FD0004F913F912F910F900FBE0F901F9018951A
:102FE000E3ECF3E01382128288EE93E0A0E0B0E01D
:102FF00084839583A683B78384E693E0918380835B
:1030000085EC90E09587848784EC90E097878687AD
:1030100080EC90E0918B808B81EC90E0938B828BA5
:1030200082EC90E0958B848B86EC90E0978B868B7E
:10303000118E128E138E148E0895FC01918D228DA7
:10304000892F90E0805C9F4F821B91098F73992795
:103050000895FC01918D828D981731F0828DE80FD3
:10306000F11D858D90E008958FEF9FEF0895FC018D
:10307000918D828D981761F0828DDF01A80FB11DAF
:103080005D968C91928D9F5F9F73928F90E00895D3
:103090008FEF9FEF0895FC01538D448D252F30E075
:1030A000842F90E0821B930B541710F0CF96089555
:1030B00001970895FC01848DDF01A80FB11DA35A6B
:1030C000BF4F2C91848D90E001968F739927848F48
:1030D000A689B7892C93A089B1898C91837080646B
:1030E0008C93938D848D981306C00288F389E02D0C
:1030F00080818F7D80830895EF92FF920F931F93BD
:10310000CF93DF93EC0181E0888F9B8D8C8D98139A
:1031100005C0E889F989808185FD26C0F62E0B8DD2
:1031200010E00F5F1F4F0F731127E02E8C8DE812F8
:103130000CC00FB607FCFACFE889F989808185FFBA
:10314000F5CFCE010E945A18F1CF8B8DFE01E80F0A
:10315000F11DE35AFF4FF0829FB7F8940B8FEA8975
:10316000FB89808180620AC09FB7F894EE89FF894D
:103170006083E889F98980818370806480839FBF40
:1031800081E090E0DF91CF911F910F91FF90EF9040
:103190000895CF93DF93EC01888D8823C9F0EA89E5
:1031A000FB89808185FD05C0A889B9898C9186FD40
:1031B0000FC00FB607FCF5CF808185FFF2CFA8893D
:1031C000B9898C9185FFEDCFCE010E945A18E7CFC7
:1031D000DF91CF910895CF92DF92EF92FF921F93EC
:1031E000CF93DF93EC016A017B01122FE889F98903
:1031F00082E080834115514E61057105B1F060E0B8
:1032000079E08DE390E0A70196010E945E1DDA014E
:10321000C9010197A109B109B695A7959795879519
:103220009C01211580E13807A8F0E889F98910820E
:1032300060E874E88EE190E0A70196010E945E1DAF
:10324000DA01C9010197A109B109B695A79597952A
:1032500087959C01EC85FD853083EE85FF85208375
:10326000188EEC89FD891083EA89FB898081806151
:103270008083EA89FB89808188608083EA89FB8971
:10328000808180688083EA89FB8980818F7D80834B
:10329000DF91CF911F91FF90EF90DF90CF90089535
:1032A000CF93CFB7F89480916304811127C0E4EEE7
:1032B000F0E08491E0EDF0E09491E82FF0E0EE0F83
:1032C000FF1FEE5FFE4FA591B491EC91E92321F42D
:1032D00061E08AE00E94B00D61E08AE00E94740D16
:1032E0008CB580618CBD8CB580648CBD61E08DE057
:1032F0000E94740D61E08BE00E94740D8091630464
:103300008F5F80936304CFBFCF9108950F931F9376
:10331000CF93DF938230910510F482E090E0E0914A
:10332000CD07F091CE0720E030E0A0E0B0E030978C
:1033300019F1408151810281138148175907C8F062
:103340008417950769F4109731F012960C93129731
:1033500013961C9327C00093CD071093CE0722C06D
:103360002115310519F04217530718F49A01BD01D0
:10337000EF01DF01F801DBCF21153105F9F0281B42
:10338000390B2430310580F48A819B8161157105E8
:1033900021F0FB019383828304C09093CE07809336
:1033A000CD07FE01329644C0FE01E20FF31F819368
:1033B000919322503109398328833AC02091CB0759
:1033C0003091CC07232B41F420916A0130916B019D
:1033D0003093CC072093CB0720916801309169018D
:1033E0002115310541F42DB73EB740916C01509144
:1033F0006D01241B350BE091CB07F091CC07E21750
:10340000F307A0F42E1B3F0B2817390778F0AC0107
:103410004E5F5F4F2417350748F04E0F5F1F5093E4
:10342000CC074093CB078193919302C0E0E0F0E09A
:10343000CF01DF91CF911F910F910895CF93DF932B
:10344000009709F481C0FC01329713821282A09187
:10345000CD07B091CE07109781F420813181820F82
:10346000931F2091CB073091CC072817390751F5CE
:10347000F093CC07E093CB0767C0ED0120E030E08C
:10348000CE17DF0740F44A815B819E01411551054B
:10349000F1F0EA01F5CFD383C28340815181840FDB
:1034A000951FC817D90759F488819981840F951FF2
:1034B0000296918380838A819B81938382832115E5
:1034C000310529F4F093CE07E093CD073DC0E90123
:1034D000FB83EA8349915991C40FD51FEC17FD076F
:1034E00061F480819181840F951F0296E90199838F
:1034F0008883828193819B838A83E0E0F0E0129647
:103500008D919C911397009719F0FD01DC01F7CF85
:103510008D919C9111979D012E5F3F4F820F931FBC
:103520002091CB073091CC072817390769F43097E1
:1035300029F41092CE071092CD0702C01382128296
:10354000B093CC07A093CB07DF91CF910895A0E073
:10355000B0E0EDEAFAE10C948A1DEC01009721F449
:10356000CB010E948619B4C0FC01E60FF71F9C0135
:1035700022503109E217F30708F4A8C0D9010D91D0
:103580001C91119706171707B0F00530110508F4C4
:103590009BC0C80104978617970708F495C002508E
:1035A0001109061B170B019311936D937C93CF01A7
:1035B0000E941E1A89C05B01A01AB10A4C01800E3C
:1035C000911EA091CD07B091CE07612C712CE12CFA
:1035D000F12C109709F446C08D919C911197A81574
:1035E000B905B1F56C0142E0C40ED11CCA14DB046C
:1035F00078F14C018A189B08640142E0C40ED11C8A
:103600001296BC9012971396AC91B5E0CB16D104EC
:1036100040F0B282A38391828082D9016D937C9322
:1036200009C00E5F1F4F800F911FF90191838083A6
:10363000EB2DFA2FE114F10431F0D7011396FC932E
:10364000EE93129741C0F093CE07E093CD073CC0B4
:103650006816790608F43C017D0112960D90BC9124
:10366000A02DB7CF8091CB079091CC0788169906F3
:10367000E1F466167706C8F48091680190916901BB
:10368000009741F48DB79EB740916C0150916D0148
:10369000841B950BE817F907C8F4F093CC07E09367
:1036A000CB07F901718360830FC0CB010E9486199B
:1036B0007C01009759F0A801BE010E94701BCE0149
:1036C0000E941E1AC70104C0CE0102C080E090E033
:1036D000CDB7DEB7EEE00C94A61DF8940C94D11D86
:1036E000FB01DC0102C001900D9241505040D8F71F
:1036F0000895FB01DC0101900D920020E1F708958F
:103700000E94631C08F481E008950E94991B0C94A8
:103710009E1C0E94971C58F00E94901C40F029F4B7
:103720005F3F29F00C94871C51110C94D21C0C940F
:103730008D1C0E94AF1C68F39923B1F3552391F3BC
:10374000951B550BBB27AA2762177307840738F010
:103750009F5F5F4F220F331F441FAA1FA9F335D06D
:103760000E2E3AF0E0E832D091505040E695001C21
:10377000CAF72BD0FE2F29D0660F771F881FBB1FDB
:10378000261737074807AB07B0E809F0BB0B802DB9
:10379000BF01FF2793585F4F3AF09E3F510578F0E5
:1037A0000C94871C0C94D21C5F3FE4F3983ED4F336
:1037B000869577956795B795F7959F5FC9F7880FB9
:1037C000911D9695879597F90895E1E0660F771F0B
:1037D000881FBB1F621773078407BA0720F0621B9C
:1037E000730B840BBA0BEE1F88F7E09508950E94C7
:1037F000B71C88F09F5798F0B92F9927B751B0F0B0
:10380000E1F0660F771F881F991F1AF0BA95C9F764
:1038100014C0B13091F00E94D11CB1E008950C9415
:10382000D11C672F782F8827B85F39F0B93FCCF3C8
:10383000869577956795B395D9F73EF490958095E1
:10384000709561957F4F8F4F9F4F0895E89409C001
:1038500097FB3EF490958095709561957F4F8F4FC3
:103860009F4F9923A9F0F92F96E9BB279395F695D9
:10387000879577956795B795F111F8CFFAF4BB0F57
:1038800011F460FF1BC06F5F7F4F8F4F9F4F16C0BB
:10389000882311F096E911C0772321F09EE8872F45
:1038A000762F05C0662371F096E8862F70E060E001
:1038B0002AF09A95660F771F881FDAF7880F96957A
:1038C000879597F90895990F0008550FAA0BE0E81E
:1038D000FEEF16161706E807F907C0F012161306D2
:1038E000E407F50798F0621B730B840B950B39F412
:1038F0000A2661F0232B242B252B21F408950A2678
:1039000009F4A140A6958FEF811D811D089597F9B7
:103910009F6780E870E060E008959FEF80EC089575
:1039200000240A941616170618060906089500249E
:103930000A9412161306140605060895092E039418
:10394000000C11F4882352F0BB0F40F4BF2B11F48C
:1039500060FF04C06F5F7F4F8F4F9F4F089557FDEB
:103960009058440F551F59F05F3F71F04795880FED
:1039700097FB991F61F09F3F79F087950895121684
:1039800013061406551FF2CF4695F1DF08C0161630
:1039900017061806991FF1CF8695710561050894E1
:1039A0000895E894BB2766277727CB0197F90895F8
:1039B0000E94631C08F48FEF08950E94F01C0C9481
:1039C0009E1C0E94901C38F00E94971C20F09523AA
:1039D00011F00C94871C0C948D1C11240C94D21C97
:1039E0000E94AF1C70F3959FC1F3950F50E0551FD7
:1039F000629FF001729FBB27F00DB11D639FAA2744
:103A0000F00DB11DAA1F649F6627B00DA11D661F92
:103A1000829F2227B00DA11D621F739FB00DA11DB3
:103A2000621F839FA00D611D221F749F3327A00D6D
:103A3000611D231F849F600D211D822F762F6A2F09
:103A400011249F5750409AF0F1F088234AF0EE0F6E
:103A5000FF1FBB1F661F771F881F91505040A9F79B
:103A60009E3F510580F00C94871C0C94D21C5F3F44
:103A7000E4F3983ED4F3869577956795B795F795D7
:103A8000E7959F5FC1F7FE2B880F911D969587954F
:103A900097F9089597FB072E16F4009407D077FD49
:103AA00009D00E94BD1D07FC05D03EF4909581957C
:103AB0009F4F0895709561957F4F0895A1E21A2E4A
:103AC000AA1BBB1BFD010DC0AA1FBB1FEE1FFF1FC2
:103AD000A217B307E407F50720F0A21BB30BE40B12
:103AE000F50B661F771F881F991F1A9469F7609559
:103AF0007095809590959B01AC01BD01CF01089513
:103B0000EE0FFF1F0590F491E02D09942F923F9244
:103B10004F925F926F927F928F929F92AF92BF92DD
:103B2000CF92DF92EF92FF920F931F93CF93DF9389
:103B3000CDB7DEB7CA1BDB0B0FB6F894DEBF0FBEE6
:103B4000CDBF09942A88398848885F846E847D8433
:103B50008C849B84AA84B984C884DF80EE80FD8035
:103B60000C811B81AA81B981CE0FD11D0FB6F894AB
:103B7000DEBF0FBECDBFED010895AA1BBB1B51E1F7
:103B800007C0AA1FBB1FA617B70710F0A61BB70BCD
:103B9000881F991F5A95A9F780959095BC01CD0172
:063BA0000895F894FFCF28
:103BA600000000000000000000000000000000000F
:103BB60000000000000000000000000000000000FF
:103BC60000000000000000000000000000000000EF
:103BD60000000000000000000000000000000000DF
:103BE60000000000000000000000000000000000CF
:103BF60000000000000000000000000000000000BF
:103C060000000000000000000000CF072000FF01B8
:103C160000FFFFFFFFFFFFFFFFFFFFFFFFFFFFFFAD
:103C2600FF000004030000B403FFFFFFFFFFFFFFD8
:103C3600FF0000AF020000000014000000140000A6
:103C46000002B802000000001E0000001E00000076
:103C560002C1020000000032000000320000000233
:103C66000000000400000000030000000002000144
:103C7600000000FFFF00000100000000000000003F
:103C8600000000000000000500FF00000100FF002A
:103C9600000100FF00002B102B10B81E75403D0AD6
:103CA6001740EC51D83F14AEA73F0000803F30408C
:103CB60050FF4D4350323531352063616E5F736579
:103CC6006E6420696E696369616C697A61646F20EC
:103CD600636F6D207375636573736F210045434D84
:103CE6003A204D6573736167652054696D656F751C
:103CF60074202872706D290045434D3A2045727232
:103D06006F7220746F2073656E64202872706D293F
:103D16000045434D3A204D657373616765205469CC
:103D26006D656F7574202853706565642900454379
:103D36004D3A204572726F7220746F2073656E64FF
:103D4600202853706565642900B101A2019301CF53
:103D560001A109B5021A0700CF01A109BE021A077F
:103D660001CF01A109C7021A0702CA01C501C00194
:103D7600B403F602E802DA0204036706C906000184
:103D86007C0C000002040100650565040001200B9F
:103D9600000001030100C90767050001B70C000018
:103DA60000020100770679065000080F00000300A4
:103DB6000100F101EC01E701010001010100000031
:103DC600003008FE070708E00774057D076105A6B1
:103DD60007820823072B073B09720877099B08AA65
:103DE60009E608E1091E07330ABE08960AD70A053E
:103DF600090D0A006E616E00696E66006F766600D8
:103E0600000000007C189E164B18C9181D1837189C
:023E1600291869
:00000001FF
